{
  "_format": "hh-sol-artifact-1",
  "contractName": "NFTMinter",
  "sourceName": "contracts/NFTMinter.sol",
  "abi": [
    {
      "inputs": [],
      "stateMutability": "nonpayable",
      "type": "constructor"
    },
    {
      "anonymous": false,
      "inputs": [
        {
          "indexed": true,
          "internalType": "address",
          "name": "owner",
          "type": "address"
        },
        {
          "indexed": true,
          "internalType": "address",
          "name": "approved",
          "type": "address"
        },
        {
          "indexed": true,
          "internalType": "uint256",
          "name": "tokenId",
          "type": "uint256"
        }
      ],
      "name": "Approval",
      "type": "event"
    },
    {
      "anonymous": false,
      "inputs": [
        {
          "indexed": true,
          "internalType": "address",
          "name": "owner",
          "type": "address"
        },
        {
          "indexed": true,
          "internalType": "address",
          "name": "operator",
          "type": "address"
        },
        {
          "indexed": false,
          "internalType": "bool",
          "name": "approved",
          "type": "bool"
        }
      ],
      "name": "ApprovalForAll",
      "type": "event"
    },
    {
      "anonymous": false,
      "inputs": [
        {
          "indexed": true,
          "internalType": "address",
          "name": "from",
          "type": "address"
        },
        {
          "indexed": true,
          "internalType": "address",
          "name": "to",
          "type": "address"
        },
        {
          "indexed": true,
          "internalType": "uint256",
          "name": "tokenId",
          "type": "uint256"
        }
      ],
      "name": "Transfer",
      "type": "event"
    },
    {
      "inputs": [
        {
          "internalType": "address",
          "name": "to",
          "type": "address"
        },
        {
          "internalType": "uint256",
          "name": "tokenId",
          "type": "uint256"
        }
      ],
      "name": "approve",
      "outputs": [],
      "stateMutability": "nonpayable",
      "type": "function"
    },
    {
      "inputs": [
        {
          "internalType": "address",
          "name": "owner",
          "type": "address"
        }
      ],
      "name": "balanceOf",
      "outputs": [
        {
          "internalType": "uint256",
          "name": "",
          "type": "uint256"
        }
      ],
      "stateMutability": "view",
      "type": "function"
    },
    {
      "inputs": [
        {
          "internalType": "uint256",
          "name": "tokenId",
          "type": "uint256"
        }
      ],
      "name": "getApproved",
      "outputs": [
        {
          "internalType": "address",
          "name": "",
          "type": "address"
        }
      ],
      "stateMutability": "view",
      "type": "function"
    },
    {
      "inputs": [
        {
          "internalType": "address",
          "name": "owner",
          "type": "address"
        },
        {
          "internalType": "address",
          "name": "operator",
          "type": "address"
        }
      ],
      "name": "isApprovedForAll",
      "outputs": [
        {
          "internalType": "bool",
          "name": "",
          "type": "bool"
        }
      ],
      "stateMutability": "view",
      "type": "function"
    },
    {
      "inputs": [
        {
          "internalType": "string",
          "name": "_name",
          "type": "string"
        },
        {
          "internalType": "string",
          "name": "_description",
          "type": "string"
        },
        {
          "internalType": "string",
          "name": "_imgWords",
          "type": "string"
        }
      ],
      "name": "makeAnNFT",
      "outputs": [],
      "stateMutability": "nonpayable",
      "type": "function"
    },
    {
      "inputs": [],
      "name": "name",
      "outputs": [
        {
          "internalType": "string",
          "name": "",
          "type": "string"
        }
      ],
      "stateMutability": "view",
      "type": "function"
    },
    {
      "inputs": [
        {
          "internalType": "uint256",
          "name": "tokenId",
          "type": "uint256"
        }
      ],
      "name": "ownerOf",
      "outputs": [
        {
          "internalType": "address",
          "name": "",
          "type": "address"
        }
      ],
      "stateMutability": "view",
      "type": "function"
    },
    {
      "inputs": [
        {
          "internalType": "address",
          "name": "from",
          "type": "address"
        },
        {
          "internalType": "address",
          "name": "to",
          "type": "address"
        },
        {
          "internalType": "uint256",
          "name": "tokenId",
          "type": "uint256"
        }
      ],
      "name": "safeTransferFrom",
      "outputs": [],
      "stateMutability": "nonpayable",
      "type": "function"
    },
    {
      "inputs": [
        {
          "internalType": "address",
          "name": "from",
          "type": "address"
        },
        {
          "internalType": "address",
          "name": "to",
          "type": "address"
        },
        {
          "internalType": "uint256",
          "name": "tokenId",
          "type": "uint256"
        },
        {
          "internalType": "bytes",
          "name": "_data",
          "type": "bytes"
        }
      ],
      "name": "safeTransferFrom",
      "outputs": [],
      "stateMutability": "nonpayable",
      "type": "function"
    },
    {
      "inputs": [
        {
          "internalType": "address",
          "name": "operator",
          "type": "address"
        },
        {
          "internalType": "bool",
          "name": "approved",
          "type": "bool"
        }
      ],
      "name": "setApprovalForAll",
      "outputs": [],
      "stateMutability": "nonpayable",
      "type": "function"
    },
    {
      "inputs": [
        {
          "internalType": "bytes4",
          "name": "interfaceId",
          "type": "bytes4"
        }
      ],
      "name": "supportsInterface",
      "outputs": [
        {
          "internalType": "bool",
          "name": "",
          "type": "bool"
        }
      ],
      "stateMutability": "view",
      "type": "function"
    },
    {
      "inputs": [],
      "name": "symbol",
      "outputs": [
        {
          "internalType": "string",
          "name": "",
          "type": "string"
        }
      ],
      "stateMutability": "view",
      "type": "function"
    },
    {
      "inputs": [
        {
          "internalType": "uint256",
          "name": "tokenId",
          "type": "uint256"
        }
      ],
      "name": "tokenURI",
      "outputs": [
        {
          "internalType": "string",
          "name": "",
          "type": "string"
        }
      ],
      "stateMutability": "view",
      "type": "function"
    },
    {
      "inputs": [
        {
          "internalType": "address",
          "name": "from",
          "type": "address"
        },
        {
          "internalType": "address",
          "name": "to",
          "type": "address"
        },
        {
          "internalType": "uint256",
          "name": "tokenId",
          "type": "uint256"
        }
      ],
      "name": "transferFrom",
      "outputs": [],
      "stateMutability": "nonpayable",
      "type": "function"
    }
  ],
  "bytecode": "0x608060405260405180610160016040528061012f8152602001620038ee61012f9139600890805190602001906200003892919062000204565b503480156200004657600080fd5b506040518060400160405280600581526020017f4d794e46540000000000000000000000000000000000000000000000000000008152506040518060400160405280600381526020017f4f4d5200000000000000000000000000000000000000000000000000000000008152508160009080519060200190620000cb92919062000204565b508060019080519060200190620000e492919062000204565b505050620001326040518060400160405280600f81526020017f4d79204e465420436f6e747261637400000000000000000000000000000000008152506200013860201b62000c061760201c565b620003e1565b620001d8816040516024016200014f9190620002f5565b6040516020818303038152906040527f41304fac000000000000000000000000000000000000000000000000000000007bffffffffffffffffffffffffffffffffffffffffffffffffffffffff19166020820180517bffffffffffffffffffffffffffffffffffffffffffffffffffffffff8381831617835250505050620001db60201b60201c565b50565b60008151905060006a636f6e736f6c652e6c6f679050602083016000808483855afa5050505050565b82805462000212906200036b565b90600052602060002090601f01602090048101928262000236576000855562000282565b82601f106200025157805160ff191683800117855562000282565b8280016001018555821562000282579182015b828111156200028157825182559160200191906001019062000264565b5b50905062000291919062000295565b5090565b5b80821115620002b057600081600090555060010162000296565b5090565b6000620002c18262000319565b620002cd818562000324565b9350620002df81856020860162000335565b620002ea81620003d0565b840191505092915050565b60006020820190508181036000830152620003118184620002b4565b905092915050565b600081519050919050565b600082825260208201905092915050565b60005b838110156200035557808201518184015260208101905062000338565b8381111562000365576000848401525b50505050565b600060028204905060018216806200038457607f821691505b602082108114156200039b576200039a620003a1565b5b50919050565b7f4e487b7100000000000000000000000000000000000000000000000000000000600052602260045260246000fd5b6000601f19601f8301169050919050565b6134fd80620003f16000396000f3fe608060405234801561001057600080fd5b50600436106100ea5760003560e01c806370a082311161008c578063b88d4fde11610066578063b88d4fde1461025b578063c87b56dd14610277578063e985e9c5146102a7578063f1d18458146102d7576100ea565b806370a08231146101f157806395d89b4114610221578063a22cb4651461023f576100ea565b8063095ea7b3116100c8578063095ea7b31461016d57806323b872dd1461018957806342842e0e146101a55780636352211e146101c1576100ea565b806301ffc9a7146100ef57806306fdde031461011f578063081812fc1461013d575b600080fd5b6101096004803603810190610104919061203b565b6102f3565b6040516101169190612733565b60405180910390f35b6101276103d5565b604051610134919061274e565b60405180910390f35b61015760048036038101906101529190612124565b610467565b60405161016491906126cc565b60405180910390f35b61018760048036038101906101829190611fff565b6104ec565b005b6101a3600480360381019061019e9190611ef9565b610604565b005b6101bf60048036038101906101ba9190611ef9565b610664565b005b6101db60048036038101906101d69190612124565b610684565b6040516101e891906126cc565b60405180910390f35b61020b60048036038101906102069190611e94565b610736565b60405161021891906129ae565b60405180910390f35b6102296107ee565b604051610236919061274e565b60405180910390f35b61025960048036038101906102549190611fc3565b610880565b005b61027560048036038101906102709190611f48565b610896565b005b610291600480360381019061028c9190612124565b6108f8565b60405161029e919061274e565b60405180910390f35b6102c160048036038101906102bc9190611ebd565b610a4a565b6040516102ce9190612733565b60405180910390f35b6102f160048036038101906102ec919061208d565b610ade565b005b60007f80ac58cd000000000000000000000000000000000000000000000000000000007bffffffffffffffffffffffffffffffffffffffffffffffffffffffff1916827bffffffffffffffffffffffffffffffffffffffffffffffffffffffff191614806103be57507f5b5e139f000000000000000000000000000000000000000000000000000000007bffffffffffffffffffffffffffffffffffffffffffffffffffffffff1916827bffffffffffffffffffffffffffffffffffffffffffffffffffffffff1916145b806103ce57506103cd82610c9f565b5b9050919050565b6060600080546103e490612c73565b80601f016020809104026020016040519081016040528092919081815260200182805461041090612c73565b801561045d5780601f106104325761010080835404028352916020019161045d565b820191906000526020600020905b81548152906001019060200180831161044057829003601f168201915b5050505050905090565b600061047282610d09565b6104b1576040517f08c379a00000000000000000000000000000000000000000000000000000000081526004016104a89061290e565b60405180910390fd5b6004600083815260200190815260200160002060009054906101000a900473ffffffffffffffffffffffffffffffffffffffff169050919050565b60006104f782610684565b90508073ffffffffffffffffffffffffffffffffffffffff168373ffffffffffffffffffffffffffffffffffffffff161415610568576040517f08c379a000000000000000000000000000000000000000000000000000000000815260040161055f9061296e565b60405180910390fd5b8073ffffffffffffffffffffffffffffffffffffffff16610587610d75565b73ffffffffffffffffffffffffffffffffffffffff1614806105b657506105b5816105b0610d75565b610a4a565b5b6105f5576040517f08c379a00000000000000000000000000000000000000000000000000000000081526004016105ec9061284e565b60405180910390fd5b6105ff8383610d7d565b505050565b61061561060f610d75565b82610e36565b610654576040517f08c379a000000000000000000000000000000000000000000000000000000000815260040161064b9061298e565b60405180910390fd5b61065f838383610f14565b505050565b61067f83838360405180602001604052806000815250610896565b505050565b6000806002600084815260200190815260200160002060009054906101000a900473ffffffffffffffffffffffffffffffffffffffff169050600073ffffffffffffffffffffffffffffffffffffffff168173ffffffffffffffffffffffffffffffffffffffff16141561072d576040517f08c379a00000000000000000000000000000000000000000000000000000000081526004016107249061288e565b60405180910390fd5b80915050919050565b60008073ffffffffffffffffffffffffffffffffffffffff168273ffffffffffffffffffffffffffffffffffffffff1614156107a7576040517f08c379a000000000000000000000000000000000000000000000000000000000815260040161079e9061286e565b60405180910390fd5b600360008373ffffffffffffffffffffffffffffffffffffffff1673ffffffffffffffffffffffffffffffffffffffff168152602001908152602001600020549050919050565b6060600180546107fd90612c73565b80601f016020809104026020016040519081016040528092919081815260200182805461082990612c73565b80156108765780601f1061084b57610100808354040283529160200191610876565b820191906000526020600020905b81548152906001019060200180831161085957829003601f168201915b5050505050905090565b61089261088b610d75565b8383611170565b5050565b6108a76108a1610d75565b83610e36565b6108e6576040517f08c379a00000000000000000000000000000000000000000000000000000000081526004016108dd9061298e565b60405180910390fd5b6108f2848484846112dd565b50505050565b606061090382610d09565b610942576040517f08c379a0000000000000000000000000000000000000000000000000000000008152600401610939906128ee565b60405180910390fd5b600060066000848152602001908152602001600020805461096290612c73565b80601f016020809104026020016040519081016040528092919081815260200182805461098e90612c73565b80156109db5780601f106109b0576101008083540402835291602001916109db565b820191906000526020600020905b8154815290600101906020018083116109be57829003601f168201915b5050505050905060006109ec611339565b9050600081511415610a02578192505050610a45565b600082511115610a37578082604051602001610a1f9291906125d8565b60405160208183030381529060405292505050610a45565b610a4084611350565b925050505b919050565b6000600560008473ffffffffffffffffffffffffffffffffffffffff1673ffffffffffffffffffffffffffffffffffffffff16815260200190815260200160002060008373ffffffffffffffffffffffffffffffffffffffff1673ffffffffffffffffffffffffffffffffffffffff16815260200190815260200160002060009054906101000a900460ff16905092915050565b6000610aea60076113f7565b9050610af63382611405565b600082604051602001610b0991906125c1565b60405160208183030381529060405290506000600882604051602001610b309291906125fc565b60405160208183030381529060405290506000610b778787610b5185611423565b604051602001610b639392919061264d565b604051602081830303815290604052611423565b9050600081604051602001610b8c91906126aa565b6040516020818303038152906040529050610ba785826115e1565b610bca604051806060016040528060258152602001613463602591398633611655565b610bd460076116f4565b610bfc81604051602001610be8919061262b565b604051602081830303815290604052610c06565b5050505050505050565b610c9c81604051602401610c1a919061274e565b6040516020818303038152906040527f41304fac000000000000000000000000000000000000000000000000000000007bffffffffffffffffffffffffffffffffffffffffffffffffffffffff19166020820180517bffffffffffffffffffffffffffffffffffffffffffffffffffffffff838183161783525050505061170a565b50565b60007f01ffc9a7000000000000000000000000000000000000000000000000000000007bffffffffffffffffffffffffffffffffffffffffffffffffffffffff1916827bffffffffffffffffffffffffffffffffffffffffffffffffffffffff1916149050919050565b60008073ffffffffffffffffffffffffffffffffffffffff166002600084815260200190815260200160002060009054906101000a900473ffffffffffffffffffffffffffffffffffffffff1673ffffffffffffffffffffffffffffffffffffffff1614159050919050565b600033905090565b816004600083815260200190815260200160002060006101000a81548173ffffffffffffffffffffffffffffffffffffffff021916908373ffffffffffffffffffffffffffffffffffffffff160217905550808273ffffffffffffffffffffffffffffffffffffffff16610df083610684565b73ffffffffffffffffffffffffffffffffffffffff167f8c5be1e5ebec7d5bd14f71427d1e84f3dd0314c0f7b2291e5b200ac8c7c3b92560405160405180910390a45050565b6000610e4182610d09565b610e80576040517f08c379a0000000000000000000000000000000000000000000000000000000008152600401610e779061282e565b60405180910390fd5b6000610e8b83610684565b90508073ffffffffffffffffffffffffffffffffffffffff168473ffffffffffffffffffffffffffffffffffffffff161480610efa57508373ffffffffffffffffffffffffffffffffffffffff16610ee284610467565b73ffffffffffffffffffffffffffffffffffffffff16145b80610f0b5750610f0a8185610a4a565b5b91505092915050565b8273ffffffffffffffffffffffffffffffffffffffff16610f3482610684565b73ffffffffffffffffffffffffffffffffffffffff1614610f8a576040517f08c379a0000000000000000000000000000000000000000000000000000000008152600401610f819061292e565b60405180910390fd5b600073ffffffffffffffffffffffffffffffffffffffff168273ffffffffffffffffffffffffffffffffffffffff161415610ffa576040517f08c379a0000000000000000000000000000000000000000000000000000000008152600401610ff1906127ee565b60405180910390fd5b611005838383611733565b611010600082610d7d565b6001600360008573ffffffffffffffffffffffffffffffffffffffff1673ffffffffffffffffffffffffffffffffffffffff16815260200190815260200160002060008282546110609190612b89565b925050819055506001600360008473ffffffffffffffffffffffffffffffffffffffff1673ffffffffffffffffffffffffffffffffffffffff16815260200190815260200160002060008282546110b79190612aa8565b92505081905550816002600083815260200190815260200160002060006101000a81548173ffffffffffffffffffffffffffffffffffffffff021916908373ffffffffffffffffffffffffffffffffffffffff160217905550808273ffffffffffffffffffffffffffffffffffffffff168473ffffffffffffffffffffffffffffffffffffffff167fddf252ad1be2c89b69c2b068fc378daa952ba7f163c4a11628f55a4df523b3ef60405160405180910390a4505050565b8173ffffffffffffffffffffffffffffffffffffffff168373ffffffffffffffffffffffffffffffffffffffff1614156111df576040517f08c379a00000000000000000000000000000000000000000000000000000000081526004016111d69061280e565b60405180910390fd5b80600560008573ffffffffffffffffffffffffffffffffffffffff1673ffffffffffffffffffffffffffffffffffffffff16815260200190815260200160002060008473ffffffffffffffffffffffffffffffffffffffff1673ffffffffffffffffffffffffffffffffffffffff16815260200190815260200160002060006101000a81548160ff0219169083151502179055508173ffffffffffffffffffffffffffffffffffffffff168373ffffffffffffffffffffffffffffffffffffffff167f17307eab39ab6107e8899845ad3d59bd9653f200f220920489ca2b5937696c31836040516112d09190612733565b60405180910390a3505050565b6112e8848484610f14565b6112f484848484611738565b611333576040517f08c379a000000000000000000000000000000000000000000000000000000000815260040161132a906127ae565b60405180910390fd5b50505050565b606060405180602001604052806000815250905090565b606061135b82610d09565b61139a576040517f08c379a00000000000000000000000000000000000000000000000000000000081526004016113919061294e565b60405180910390fd5b60006113a4611339565b905060008151116113c457604051806020016040528060008152506113ef565b806113ce846118cf565b6040516020016113df9291906125d8565b6040516020818303038152906040525b915050919050565b600081600001549050919050565b61141f828260405180602001604052806000815250611a7c565b5050565b6060600082519050600081141561144c57604051806020016040528060008152509150506115dc565b6000600360028361145d9190612aa8565b6114679190612afe565b60046114739190612b2f565b905060006020826114849190612aa8565b67ffffffffffffffff8111156114c3577f4e487b7100000000000000000000000000000000000000000000000000000000600052604160045260246000fd5b6040519080825280601f01601f1916602001820160405280156114f55781602001600182028036833780820191505090505b5090506000604051806060016040528060408152602001613488604091399050600181016020830160005b868110156115995760038101905062ffffff818a015116603f8160121c168401518060081b905060ff603f83600c1c1686015116810190508060081b905060ff603f8360061c1686015116810190508060081b905060ff603f831686015116810190508060e01b90508084526004840193505050611520565b5060038606600181146115b357600281146115c3576115ce565b613d3d60f01b60028303526115ce565b603d60f81b60018303525b508484525050819450505050505b919050565b6115ea82610d09565b611629576040517f08c379a0000000000000000000000000000000000000000000000000000000008152600401611620906128ae565b60405180910390fd5b80600660008481526020019081526020016000209080519060200190611650929190611cb8565b505050565b6116ef83838360405160240161166d93929190612770565b6040516020818303038152906040527fe3849f79000000000000000000000000000000000000000000000000000000007bffffffffffffffffffffffffffffffffffffffffffffffffffffffff19166020820180517bffffffffffffffffffffffffffffffffffffffffffffffffffffffff838183161783525050505061170a565b505050565b6001816000016000828254019250508190555050565b60008151905060006a636f6e736f6c652e6c6f679050602083016000808483855afa5050505050565b505050565b60006117598473ffffffffffffffffffffffffffffffffffffffff16611ad7565b156118c2578373ffffffffffffffffffffffffffffffffffffffff1663150b7a02611782610d75565b8786866040518563ffffffff1660e01b81526004016117a494939291906126e7565b602060405180830381600087803b1580156117be57600080fd5b505af19250505080156117ef57506040513d601f19601f820116820180604052508101906117ec9190612064565b60015b611872573d806000811461181f576040519150601f19603f3d011682016040523d82523d6000602084013e611824565b606091505b5060008151141561186a576040517f08c379a0000000000000000000000000000000000000000000000000000000008152600401611861906127ae565b60405180910390fd5b805181602001fd5b63150b7a0260e01b7bffffffffffffffffffffffffffffffffffffffffffffffffffffffff1916817bffffffffffffffffffffffffffffffffffffffffffffffffffffffff1916149150506118c7565b600190505b949350505050565b60606000821415611917576040518060400160405280600181526020017f30000000000000000000000000000000000000000000000000000000000000008152509050611a77565b600082905060005b6000821461194957808061193290612cd6565b915050600a826119429190612afe565b915061191f565b60008167ffffffffffffffff81111561198b577f4e487b7100000000000000000000000000000000000000000000000000000000600052604160045260246000fd5b6040519080825280601f01601f1916602001820160405280156119bd5781602001600182028036833780820191505090505b5090505b60008514611a70576001826119d69190612b89565b9150600a856119e59190612d1f565b60306119f19190612aa8565b60f81b818381518110611a2d577f4e487b7100000000000000000000000000000000000000000000000000000000600052603260045260246000fd5b60200101907effffffffffffffffffffffffffffffffffffffffffffffffffffffffffffff1916908160001a905350600a85611a699190612afe565b94506119c1565b8093505050505b919050565b611a868383611aea565b611a936000848484611738565b611ad2576040517f08c379a0000000000000000000000000000000000000000000000000000000008152600401611ac9906127ae565b60405180910390fd5b505050565b600080823b905060008111915050919050565b600073ffffffffffffffffffffffffffffffffffffffff168273ffffffffffffffffffffffffffffffffffffffff161415611b5a576040517f08c379a0000000000000000000000000000000000000000000000000000000008152600401611b51906128ce565b60405180910390fd5b611b6381610d09565b15611ba3576040517f08c379a0000000000000000000000000000000000000000000000000000000008152600401611b9a906127ce565b60405180910390fd5b611baf60008383611733565b6001600360008473ffffffffffffffffffffffffffffffffffffffff1673ffffffffffffffffffffffffffffffffffffffff1681526020019081526020016000206000828254611bff9190612aa8565b92505081905550816002600083815260200190815260200160002060006101000a81548173ffffffffffffffffffffffffffffffffffffffff021916908373ffffffffffffffffffffffffffffffffffffffff160217905550808273ffffffffffffffffffffffffffffffffffffffff16600073ffffffffffffffffffffffffffffffffffffffff167fddf252ad1be2c89b69c2b068fc378daa952ba7f163c4a11628f55a4df523b3ef60405160405180910390a45050565b828054611cc490612c73565b90600052602060002090601f016020900481019282611ce65760008555611d2d565b82601f10611cff57805160ff1916838001178555611d2d565b82800160010185558215611d2d579182015b82811115611d2c578251825591602001919060010190611d11565b5b509050611d3a9190611d3e565b5090565b5b80821115611d57576000816000905550600101611d3f565b5090565b6000611d6e611d69846129ee565b6129c9565b905082815260208101848484011115611d8657600080fd5b611d91848285612c31565b509392505050565b6000611dac611da784612a1f565b6129c9565b905082815260208101848484011115611dc457600080fd5b611dcf848285612c31565b509392505050565b600081359050611de681613406565b92915050565b600081359050611dfb8161341d565b92915050565b600081359050611e1081613434565b92915050565b600081519050611e2581613434565b92915050565b600082601f830112611e3c57600080fd5b8135611e4c848260208601611d5b565b91505092915050565b600082601f830112611e6657600080fd5b8135611e76848260208601611d99565b91505092915050565b600081359050611e8e8161344b565b92915050565b600060208284031215611ea657600080fd5b6000611eb484828501611dd7565b91505092915050565b60008060408385031215611ed057600080fd5b6000611ede85828601611dd7565b9250506020611eef85828601611dd7565b9150509250929050565b600080600060608486031215611f0e57600080fd5b6000611f1c86828701611dd7565b9350506020611f2d86828701611dd7565b9250506040611f3e86828701611e7f565b9150509250925092565b60008060008060808587031215611f5e57600080fd5b6000611f6c87828801611dd7565b9450506020611f7d87828801611dd7565b9350506040611f8e87828801611e7f565b925050606085013567ffffffffffffffff811115611fab57600080fd5b611fb787828801611e2b565b91505092959194509250565b60008060408385031215611fd657600080fd5b6000611fe485828601611dd7565b9250506020611ff585828601611dec565b9150509250929050565b6000806040838503121561201257600080fd5b600061202085828601611dd7565b925050602061203185828601611e7f565b9150509250929050565b60006020828403121561204d57600080fd5b600061205b84828501611e01565b91505092915050565b60006020828403121561207657600080fd5b600061208484828501611e16565b91505092915050565b6000806000606084860312156120a257600080fd5b600084013567ffffffffffffffff8111156120bc57600080fd5b6120c886828701611e55565b935050602084013567ffffffffffffffff8111156120e557600080fd5b6120f186828701611e55565b925050604084013567ffffffffffffffff81111561210e57600080fd5b61211a86828701611e55565b9150509250925092565b60006020828403121561213657600080fd5b600061214484828501611e7f565b91505092915050565b61215681612bbd565b82525050565b61216581612bcf565b82525050565b600061217682612a65565b6121808185612a7b565b9350612190818560208601612c40565b61219981612e0c565b840191505092915050565b60006121af82612a70565b6121b98185612a8c565b93506121c9818560208601612c40565b6121d281612e0c565b840191505092915050565b60006121e882612a70565b6121f28185612a9d565b9350612202818560208601612c40565b80840191505092915050565b6000815461221b81612c73565b6122258186612a9d565b94506001821660008114612240576001811461225157612284565b60ff19831686528186019350612284565b61225a85612a50565b60005b8381101561227c5781548189015260018201915060208101905061225d565b838801955050505b50505092915050565b600061229a602583612a9d565b91506122a582612e1d565b602582019050919050565b60006122bd601383612a9d565b91506122c882612e6c565b601382019050919050565b60006122e0603283612a8c565b91506122eb82612e95565b604082019050919050565b6000612303601c83612a8c565b915061230e82612ee4565b602082019050919050565b6000612326602483612a8c565b915061233182612f0d565b604082019050919050565b6000612349601983612a8c565b915061235482612f5c565b602082019050919050565b600061236c602c83612a8c565b915061237782612f85565b604082019050919050565b600061238f600d83612a9d565b915061239a82612fd4565b600d82019050919050565b60006123b2603883612a8c565b91506123bd82612ffd565b604082019050919050565b60006123d5602a83612a8c565b91506123e08261304c565b604082019050919050565b60006123f8602983612a8c565b91506124038261309b565b604082019050919050565b600061241b602e83612a8c565b9150612426826130ea565b604082019050919050565b600061243e600283612a9d565b915061244982613139565b600282019050919050565b6000612461602083612a8c565b915061246c82613162565b602082019050919050565b6000612484603183612a8c565b915061248f8261318b565b604082019050919050565b60006124a7602c83612a8c565b91506124b2826131da565b604082019050919050565b60006124ca602983612a8c565b91506124d582613229565b604082019050919050565b60006124ed602f83612a8c565b91506124f882613278565b604082019050919050565b6000612510602783612a9d565b915061251b826132c7565b602782019050919050565b6000612533600a83612a9d565b915061253e82613316565b600a82019050919050565b6000612556602183612a8c565b91506125618261333f565b604082019050919050565b6000612579601d83612a9d565b91506125848261338e565b601d82019050919050565b600061259c603183612a8c565b91506125a7826133b7565b604082019050919050565b6125bb81612c27565b82525050565b60006125cd82846121dd565b915081905092915050565b60006125e482856121dd565b91506125f082846121dd565b91508190509392505050565b6000612608828561220e565b915061261482846121dd565b915061261f82612382565b91508190509392505050565b60006126368261228d565b915061264282846121dd565b915081905092915050565b600061265882612526565b915061266482866121dd565b915061266f826122b0565b915061267b82856121dd565b915061268682612503565b915061269282846121dd565b915061269d82612431565b9150819050949350505050565b60006126b58261256c565b91506126c182846121dd565b915081905092915050565b60006020820190506126e1600083018461214d565b92915050565b60006080820190506126fc600083018761214d565b612709602083018661214d565b61271660408301856125b2565b8181036060830152612728818461216b565b905095945050505050565b6000602082019050612748600083018461215c565b92915050565b6000602082019050818103600083015261276881846121a4565b905092915050565b6000606082019050818103600083015261278a81866121a4565b905061279960208301856125b2565b6127a6604083018461214d565b949350505050565b600060208201905081810360008301526127c7816122d3565b9050919050565b600060208201905081810360008301526127e7816122f6565b9050919050565b6000602082019050818103600083015261280781612319565b9050919050565b600060208201905081810360008301526128278161233c565b9050919050565b600060208201905081810360008301526128478161235f565b9050919050565b60006020820190508181036000830152612867816123a5565b9050919050565b60006020820190508181036000830152612887816123c8565b9050919050565b600060208201905081810360008301526128a7816123eb565b9050919050565b600060208201905081810360008301526128c78161240e565b9050919050565b600060208201905081810360008301526128e781612454565b9050919050565b6000602082019050818103600083015261290781612477565b9050919050565b600060208201905081810360008301526129278161249a565b9050919050565b60006020820190508181036000830152612947816124bd565b9050919050565b60006020820190508181036000830152612967816124e0565b9050919050565b6000602082019050818103600083015261298781612549565b9050919050565b600060208201905081810360008301526129a78161258f565b9050919050565b60006020820190506129c360008301846125b2565b92915050565b60006129d36129e4565b90506129df8282612ca5565b919050565b6000604051905090565b600067ffffffffffffffff821115612a0957612a08612ddd565b5b612a1282612e0c565b9050602081019050919050565b600067ffffffffffffffff821115612a3a57612a39612ddd565b5b612a4382612e0c565b9050602081019050919050565b60008190508160005260206000209050919050565b600081519050919050565b600081519050919050565b600082825260208201905092915050565b600082825260208201905092915050565b600081905092915050565b6000612ab382612c27565b9150612abe83612c27565b9250827fffffffffffffffffffffffffffffffffffffffffffffffffffffffffffffffff03821115612af357612af2612d50565b5b828201905092915050565b6000612b0982612c27565b9150612b1483612c27565b925082612b2457612b23612d7f565b5b828204905092915050565b6000612b3a82612c27565b9150612b4583612c27565b9250817fffffffffffffffffffffffffffffffffffffffffffffffffffffffffffffffff0483118215151615612b7e57612b7d612d50565b5b828202905092915050565b6000612b9482612c27565b9150612b9f83612c27565b925082821015612bb257612bb1612d50565b5b828203905092915050565b6000612bc882612c07565b9050919050565b60008115159050919050565b60007fffffffff0000000000000000000000000000000000000000000000000000000082169050919050565b600073ffffffffffffffffffffffffffffffffffffffff82169050919050565b6000819050919050565b82818337600083830152505050565b60005b83811015612c5e578082015181840152602081019050612c43565b83811115612c6d576000848401525b50505050565b60006002820490506001821680612c8b57607f821691505b60208210811415612c9f57612c9e612dae565b5b50919050565b612cae82612e0c565b810181811067ffffffffffffffff82111715612ccd57612ccc612ddd565b5b80604052505050565b6000612ce182612c27565b91507fffffffffffffffffffffffffffffffffffffffffffffffffffffffffffffffff821415612d1457612d13612d50565b5b600182019050919050565b6000612d2a82612c27565b9150612d3583612c27565b925082612d4557612d44612d7f565b5b828206905092915050565b7f4e487b7100000000000000000000000000000000000000000000000000000000600052601160045260246000fd5b7f4e487b7100000000000000000000000000000000000000000000000000000000600052601260045260246000fd5b7f4e487b7100000000000000000000000000000000000000000000000000000000600052602260045260246000fd5b7f4e487b7100000000000000000000000000000000000000000000000000000000600052604160045260246000fd5b6000601f19601f8301169050919050565b7f68747470733a2f2f6e6674707265766965772e30786465762e636f6465732f3f60008201527f636f64653d000000000000000000000000000000000000000000000000000000602082015250565b7f222c20226465736372697074696f6e223a202200000000000000000000000000600082015250565b7f4552433732313a207472616e7366657220746f206e6f6e20455243373231526560008201527f63656976657220696d706c656d656e7465720000000000000000000000000000602082015250565b7f4552433732313a20746f6b656e20616c7265616479206d696e74656400000000600082015250565b7f4552433732313a207472616e7366657220746f20746865207a65726f2061646460008201527f7265737300000000000000000000000000000000000000000000000000000000602082015250565b7f4552433732313a20617070726f766520746f2063616c6c657200000000000000600082015250565b7f4552433732313a206f70657261746f7220717565727920666f72206e6f6e657860008201527f697374656e7420746f6b656e0000000000000000000000000000000000000000602082015250565b7f3c2f746578743e3c2f7376673e00000000000000000000000000000000000000600082015250565b7f4552433732313a20617070726f76652063616c6c6572206973206e6f74206f7760008201527f6e6572206e6f7220617070726f76656420666f7220616c6c0000000000000000602082015250565b7f4552433732313a2062616c616e636520717565727920666f7220746865207a6560008201527f726f206164647265737300000000000000000000000000000000000000000000602082015250565b7f4552433732313a206f776e657220717565727920666f72206e6f6e657869737460008201527f656e7420746f6b656e0000000000000000000000000000000000000000000000602082015250565b7f45524337323155524953746f726167653a2055524920736574206f66206e6f6e60008201527f6578697374656e7420746f6b656e000000000000000000000000000000000000602082015250565b7f227d000000000000000000000000000000000000000000000000000000000000600082015250565b7f4552433732313a206d696e7420746f20746865207a65726f2061646472657373600082015250565b7f45524337323155524953746f726167653a2055524920717565727920666f722060008201527f6e6f6e6578697374656e7420746f6b656e000000000000000000000000000000602082015250565b7f4552433732313a20617070726f76656420717565727920666f72206e6f6e657860008201527f697374656e7420746f6b656e0000000000000000000000000000000000000000602082015250565b7f4552433732313a207472616e73666572206f6620746f6b656e2074686174206960008201527f73206e6f74206f776e0000000000000000000000000000000000000000000000602082015250565b7f4552433732314d657461646174613a2055524920717565727920666f72206e6f60008201527f6e6578697374656e7420746f6b656e0000000000000000000000000000000000602082015250565b7f222c2022696d616765223a2022646174613a696d6167652f7376672b786d6c3b60008201527f6261736536342c00000000000000000000000000000000000000000000000000602082015250565b7f7b226e616d65223a202200000000000000000000000000000000000000000000600082015250565b7f4552433732313a20617070726f76616c20746f2063757272656e74206f776e6560008201527f7200000000000000000000000000000000000000000000000000000000000000602082015250565b7f646174613a6170706c69636174696f6e2f6a736f6e3b6261736536342c000000600082015250565b7f4552433732313a207472616e736665722063616c6c6572206973206e6f74206f60008201527f776e6572206e6f7220617070726f766564000000000000000000000000000000602082015250565b61340f81612bbd565b811461341a57600080fd5b50565b61342681612bcf565b811461343157600080fd5b50565b61343d81612bdb565b811461344857600080fd5b50565b61345481612c27565b811461345f57600080fd5b5056fe416e204e465420772f20494420257320686173206265656e206d696e74656420746f2025734142434445464748494a4b4c4d4e4f505152535455565758595a6162636465666768696a6b6c6d6e6f707172737475767778797a303132333435363738392b2fa26469706673582212203e51a7ea1d5c9544caed37c128e4dfc08cb100db2fc27964295228776bb1461864736f6c634300080400333c73766720786d6c6e733d27687474703a2f2f7777772e77332e6f72672f323030302f73766727207072657365727665417370656374526174696f3d27784d696e594d696e206d656574272076696577426f783d273020302033353020333530273e3c7374796c653e2e62617365207b2066696c6c3a2077686974653b20666f6e742d66616d696c793a2073657269663b20666f6e742d73697a653a20323470783b207d3c2f7374796c653e3c726563742077696474683d273130302527206865696768743d2731303025272066696c6c3d27626c61636b27202f3e3c7465787420783d273530252720793d273530252720636c6173733d27626173652720646f6d696e616e742d626173656c696e653d276d6964646c652720746578742d616e63686f723d276d6964646c65273e",
  "linkReferences": {},
  "deployedLinkReferences": {}
}