{
  "_format": "hh-sol-artifact-1",
  "contractName": "NFTMinter",
  "sourceName": "contracts/NFTMinter.sol",
  "abi": [
    {
      "inputs": [],
      "stateMutability": "nonpayable",
      "type": "constructor"
    },
    {
      "anonymous": false,
      "inputs": [
        {
          "indexed": true,
          "internalType": "address",
          "name": "owner",
          "type": "address"
        },
        {
          "indexed": true,
          "internalType": "address",
          "name": "approved",
          "type": "address"
        },
        {
          "indexed": true,
          "internalType": "uint256",
          "name": "tokenId",
          "type": "uint256"
        }
      ],
      "name": "Approval",
      "type": "event"
    },
    {
      "anonymous": false,
      "inputs": [
        {
          "indexed": true,
          "internalType": "address",
          "name": "owner",
          "type": "address"
        },
        {
          "indexed": true,
          "internalType": "address",
          "name": "operator",
          "type": "address"
        },
        {
          "indexed": false,
          "internalType": "bool",
          "name": "approved",
          "type": "bool"
        }
      ],
      "name": "ApprovalForAll",
      "type": "event"
    },
    {
      "anonymous": false,
      "inputs": [
        {
          "indexed": true,
          "internalType": "address",
          "name": "from",
          "type": "address"
        },
        {
          "indexed": true,
          "internalType": "address",
          "name": "to",
          "type": "address"
        },
        {
          "indexed": true,
          "internalType": "uint256",
          "name": "tokenId",
          "type": "uint256"
        }
      ],
      "name": "Transfer",
      "type": "event"
    },
    {
      "inputs": [
        {
          "internalType": "address",
          "name": "to",
          "type": "address"
        },
        {
          "internalType": "uint256",
          "name": "tokenId",
          "type": "uint256"
        }
      ],
      "name": "approve",
      "outputs": [],
      "stateMutability": "nonpayable",
      "type": "function"
    },
    {
      "inputs": [
        {
          "internalType": "address",
          "name": "owner",
          "type": "address"
        }
      ],
      "name": "balanceOf",
      "outputs": [
        {
          "internalType": "uint256",
          "name": "",
          "type": "uint256"
        }
      ],
      "stateMutability": "view",
      "type": "function"
    },
    {
      "inputs": [
        {
          "internalType": "uint256",
          "name": "tokenId",
          "type": "uint256"
        }
      ],
      "name": "getApproved",
      "outputs": [
        {
          "internalType": "address",
          "name": "",
          "type": "address"
        }
      ],
      "stateMutability": "view",
      "type": "function"
    },
    {
      "inputs": [
        {
          "internalType": "address",
          "name": "owner",
          "type": "address"
        },
        {
          "internalType": "address",
          "name": "operator",
          "type": "address"
        }
      ],
      "name": "isApprovedForAll",
      "outputs": [
        {
          "internalType": "bool",
          "name": "",
          "type": "bool"
        }
      ],
      "stateMutability": "view",
      "type": "function"
    },
    {
      "inputs": [
        {
          "internalType": "string",
          "name": "_name",
          "type": "string"
        },
        {
          "internalType": "string",
          "name": "_description",
          "type": "string"
        },
        {
          "internalType": "string",
          "name": "_imgUrl",
          "type": "string"
        }
      ],
      "name": "makeAnNFT",
      "outputs": [],
      "stateMutability": "nonpayable",
      "type": "function"
    },
    {
      "inputs": [],
      "name": "name",
      "outputs": [
        {
          "internalType": "string",
          "name": "",
          "type": "string"
        }
      ],
      "stateMutability": "view",
      "type": "function"
    },
    {
      "inputs": [
        {
          "internalType": "uint256",
          "name": "tokenId",
          "type": "uint256"
        }
      ],
      "name": "ownerOf",
      "outputs": [
        {
          "internalType": "address",
          "name": "",
          "type": "address"
        }
      ],
      "stateMutability": "view",
      "type": "function"
    },
    {
      "inputs": [
        {
          "internalType": "address",
          "name": "from",
          "type": "address"
        },
        {
          "internalType": "address",
          "name": "to",
          "type": "address"
        },
        {
          "internalType": "uint256",
          "name": "tokenId",
          "type": "uint256"
        }
      ],
      "name": "safeTransferFrom",
      "outputs": [],
      "stateMutability": "nonpayable",
      "type": "function"
    },
    {
      "inputs": [
        {
          "internalType": "address",
          "name": "from",
          "type": "address"
        },
        {
          "internalType": "address",
          "name": "to",
          "type": "address"
        },
        {
          "internalType": "uint256",
          "name": "tokenId",
          "type": "uint256"
        },
        {
          "internalType": "bytes",
          "name": "_data",
          "type": "bytes"
        }
      ],
      "name": "safeTransferFrom",
      "outputs": [],
      "stateMutability": "nonpayable",
      "type": "function"
    },
    {
      "inputs": [
        {
          "internalType": "address",
          "name": "operator",
          "type": "address"
        },
        {
          "internalType": "bool",
          "name": "approved",
          "type": "bool"
        }
      ],
      "name": "setApprovalForAll",
      "outputs": [],
      "stateMutability": "nonpayable",
      "type": "function"
    },
    {
      "inputs": [
        {
          "internalType": "bytes4",
          "name": "interfaceId",
          "type": "bytes4"
        }
      ],
      "name": "supportsInterface",
      "outputs": [
        {
          "internalType": "bool",
          "name": "",
          "type": "bool"
        }
      ],
      "stateMutability": "view",
      "type": "function"
    },
    {
      "inputs": [],
      "name": "symbol",
      "outputs": [
        {
          "internalType": "string",
          "name": "",
          "type": "string"
        }
      ],
      "stateMutability": "view",
      "type": "function"
    },
    {
      "inputs": [
        {
          "internalType": "uint256",
          "name": "tokenId",
          "type": "uint256"
        }
      ],
      "name": "tokenURI",
      "outputs": [
        {
          "internalType": "string",
          "name": "",
          "type": "string"
        }
      ],
      "stateMutability": "view",
      "type": "function"
    },
    {
      "inputs": [
        {
          "internalType": "address",
          "name": "from",
          "type": "address"
        },
        {
          "internalType": "address",
          "name": "to",
          "type": "address"
        },
        {
          "internalType": "uint256",
          "name": "tokenId",
          "type": "uint256"
        }
      ],
      "name": "transferFrom",
      "outputs": [],
      "stateMutability": "nonpayable",
      "type": "function"
    }
  ],
  "bytecode": "0x60806040523480156200001157600080fd5b506040518060400160405280600581526020017f4d794e46540000000000000000000000000000000000000000000000000000008152506040518060400160405280600381526020017f4f4d520000000000000000000000000000000000000000000000000000000000815250816000908051906020019062000096929190620001cf565b508060019080519060200190620000af929190620001cf565b505050620000fd6040518060400160405280600f81526020017f4d79204e465420436f6e747261637400000000000000000000000000000000008152506200010360201b62000bb11760201c565b620003ac565b620001a3816040516024016200011a9190620002c0565b6040516020818303038152906040527f41304fac000000000000000000000000000000000000000000000000000000007bffffffffffffffffffffffffffffffffffffffffffffffffffffffff19166020820180517bffffffffffffffffffffffffffffffffffffffffffffffffffffffff8381831617835250505050620001a660201b60201c565b50565b60008151905060006a636f6e736f6c652e6c6f679050602083016000808483855afa5050505050565b828054620001dd9062000336565b90600052602060002090601f0160209004810192826200020157600085556200024d565b82601f106200021c57805160ff19168380011785556200024d565b828001600101855582156200024d579182015b828111156200024c5782518255916020019190600101906200022f565b5b5090506200025c919062000260565b5090565b5b808211156200027b57600081600090555060010162000261565b5090565b60006200028c82620002e4565b620002988185620002ef565b9350620002aa81856020860162000300565b620002b5816200039b565b840191505092915050565b60006020820190508181036000830152620002dc81846200027f565b905092915050565b600081519050919050565b600082825260208201905092915050565b60005b838110156200032057808201518184015260208101905062000303565b8381111562000330576000848401525b50505050565b600060028204905060018216806200034f57607f821691505b602082108114156200036657620003656200036c565b5b50919050565b7f4e487b7100000000000000000000000000000000000000000000000000000000600052602260045260246000fd5b6000601f19601f8301169050919050565b61335c80620003bc6000396000f3fe608060405234801561001057600080fd5b50600436106100ea5760003560e01c806370a082311161008c578063b88d4fde11610066578063b88d4fde1461025b578063c87b56dd14610277578063e985e9c5146102a7578063f1d18458146102d7576100ea565b806370a08231146101f157806395d89b4114610221578063a22cb4651461023f576100ea565b8063095ea7b3116100c8578063095ea7b31461016d57806323b872dd1461018957806342842e0e146101a55780636352211e146101c1576100ea565b806301ffc9a7146100ef57806306fdde031461011f578063081812fc1461013d575b600080fd5b61010960048036038101906101049190611fe6565b6102f3565b60405161011691906125f6565b60405180910390f35b6101276103d5565b6040516101349190612611565b60405180910390f35b610157600480360381019061015291906120cf565b610467565b604051610164919061258f565b60405180910390f35b61018760048036038101906101829190611faa565b6104ec565b005b6101a3600480360381019061019e9190611ea4565b610604565b005b6101bf60048036038101906101ba9190611ea4565b610664565b005b6101db60048036038101906101d691906120cf565b610684565b6040516101e8919061258f565b60405180910390f35b61020b60048036038101906102069190611e3f565b610736565b6040516102189190612871565b60405180910390f35b6102296107ee565b6040516102369190612611565b60405180910390f35b61025960048036038101906102549190611f6e565b610880565b005b61027560048036038101906102709190611ef3565b610896565b005b610291600480360381019061028c91906120cf565b6108f8565b60405161029e9190612611565b60405180910390f35b6102c160048036038101906102bc9190611e68565b610a4a565b6040516102ce91906125f6565b60405180910390f35b6102f160048036038101906102ec9190612038565b610ade565b005b60007f80ac58cd000000000000000000000000000000000000000000000000000000007bffffffffffffffffffffffffffffffffffffffffffffffffffffffff1916827bffffffffffffffffffffffffffffffffffffffffffffffffffffffff191614806103be57507f5b5e139f000000000000000000000000000000000000000000000000000000007bffffffffffffffffffffffffffffffffffffffffffffffffffffffff1916827bffffffffffffffffffffffffffffffffffffffffffffffffffffffff1916145b806103ce57506103cd82610c4a565b5b9050919050565b6060600080546103e490612b21565b80601f016020809104026020016040519081016040528092919081815260200182805461041090612b21565b801561045d5780601f106104325761010080835404028352916020019161045d565b820191906000526020600020905b81548152906001019060200180831161044057829003601f168201915b5050505050905090565b600061047282610cb4565b6104b1576040517f08c379a00000000000000000000000000000000000000000000000000000000081526004016104a8906127d1565b60405180910390fd5b6004600083815260200190815260200160002060009054906101000a900473ffffffffffffffffffffffffffffffffffffffff169050919050565b60006104f782610684565b90508073ffffffffffffffffffffffffffffffffffffffff168373ffffffffffffffffffffffffffffffffffffffff161415610568576040517f08c379a000000000000000000000000000000000000000000000000000000000815260040161055f90612831565b60405180910390fd5b8073ffffffffffffffffffffffffffffffffffffffff16610587610d20565b73ffffffffffffffffffffffffffffffffffffffff1614806105b657506105b5816105b0610d20565b610a4a565b5b6105f5576040517f08c379a00000000000000000000000000000000000000000000000000000000081526004016105ec90612711565b60405180910390fd5b6105ff8383610d28565b505050565b61061561060f610d20565b82610de1565b610654576040517f08c379a000000000000000000000000000000000000000000000000000000000815260040161064b90612851565b60405180910390fd5b61065f838383610ebf565b505050565b61067f83838360405180602001604052806000815250610896565b505050565b6000806002600084815260200190815260200160002060009054906101000a900473ffffffffffffffffffffffffffffffffffffffff169050600073ffffffffffffffffffffffffffffffffffffffff168173ffffffffffffffffffffffffffffffffffffffff16141561072d576040517f08c379a000000000000000000000000000000000000000000000000000000000815260040161072490612751565b60405180910390fd5b80915050919050565b60008073ffffffffffffffffffffffffffffffffffffffff168273ffffffffffffffffffffffffffffffffffffffff1614156107a7576040517f08c379a000000000000000000000000000000000000000000000000000000000815260040161079e90612731565b60405180910390fd5b600360008373ffffffffffffffffffffffffffffffffffffffff1673ffffffffffffffffffffffffffffffffffffffff168152602001908152602001600020549050919050565b6060600180546107fd90612b21565b80601f016020809104026020016040519081016040528092919081815260200182805461082990612b21565b80156108765780601f1061084b57610100808354040283529160200191610876565b820191906000526020600020905b81548152906001019060200180831161085957829003601f168201915b5050505050905090565b61089261088b610d20565b838361111b565b5050565b6108a76108a1610d20565b83610de1565b6108e6576040517f08c379a00000000000000000000000000000000000000000000000000000000081526004016108dd90612851565b60405180910390fd5b6108f284848484611288565b50505050565b606061090382610cb4565b610942576040517f08c379a0000000000000000000000000000000000000000000000000000000008152600401610939906127b1565b60405180910390fd5b600060066000848152602001908152602001600020805461096290612b21565b80601f016020809104026020016040519081016040528092919081815260200182805461098e90612b21565b80156109db5780601f106109b0576101008083540402835291602001916109db565b820191906000526020600020905b8154815290600101906020018083116109be57829003601f168201915b5050505050905060006109ec6112e4565b9050600081511415610a02578192505050610a45565b600082511115610a37578082604051602001610a1f9291906124ca565b60405160208183030381529060405292505050610a45565b610a40846112fb565b925050505b919050565b6000600560008473ffffffffffffffffffffffffffffffffffffffff1673ffffffffffffffffffffffffffffffffffffffff16815260200190815260200160002060008373ffffffffffffffffffffffffffffffffffffffff1673ffffffffffffffffffffffffffffffffffffffff16815260200190815260200160002060009054906101000a900460ff16905092915050565b6000610aea60076113a2565b9050610af633826113b0565b6000610b24858585604051602001610b1093929190612510565b6040516020818303038152906040526113ce565b9050600081604051602001610b39919061256d565b6040516020818303038152906040529050610b54838261158c565b610b776040518060600160405280602581526020016132c2602591398433611600565b610b81600761169f565b610ba981604051602001610b9591906124ee565b604051602081830303815290604052610bb1565b505050505050565b610c4781604051602401610bc59190612611565b6040516020818303038152906040527f41304fac000000000000000000000000000000000000000000000000000000007bffffffffffffffffffffffffffffffffffffffffffffffffffffffff19166020820180517bffffffffffffffffffffffffffffffffffffffffffffffffffffffff83818316178352505050506116b5565b50565b60007f01ffc9a7000000000000000000000000000000000000000000000000000000007bffffffffffffffffffffffffffffffffffffffffffffffffffffffff1916827bffffffffffffffffffffffffffffffffffffffffffffffffffffffff1916149050919050565b60008073ffffffffffffffffffffffffffffffffffffffff166002600084815260200190815260200160002060009054906101000a900473ffffffffffffffffffffffffffffffffffffffff1673ffffffffffffffffffffffffffffffffffffffff1614159050919050565b600033905090565b816004600083815260200190815260200160002060006101000a81548173ffffffffffffffffffffffffffffffffffffffff021916908373ffffffffffffffffffffffffffffffffffffffff160217905550808273ffffffffffffffffffffffffffffffffffffffff16610d9b83610684565b73ffffffffffffffffffffffffffffffffffffffff167f8c5be1e5ebec7d5bd14f71427d1e84f3dd0314c0f7b2291e5b200ac8c7c3b92560405160405180910390a45050565b6000610dec82610cb4565b610e2b576040517f08c379a0000000000000000000000000000000000000000000000000000000008152600401610e22906126f1565b60405180910390fd5b6000610e3683610684565b90508073ffffffffffffffffffffffffffffffffffffffff168473ffffffffffffffffffffffffffffffffffffffff161480610ea557508373ffffffffffffffffffffffffffffffffffffffff16610e8d84610467565b73ffffffffffffffffffffffffffffffffffffffff16145b80610eb65750610eb58185610a4a565b5b91505092915050565b8273ffffffffffffffffffffffffffffffffffffffff16610edf82610684565b73ffffffffffffffffffffffffffffffffffffffff1614610f35576040517f08c379a0000000000000000000000000000000000000000000000000000000008152600401610f2c906127f1565b60405180910390fd5b600073ffffffffffffffffffffffffffffffffffffffff168273ffffffffffffffffffffffffffffffffffffffff161415610fa5576040517f08c379a0000000000000000000000000000000000000000000000000000000008152600401610f9c906126b1565b60405180910390fd5b610fb08383836116de565b610fbb600082610d28565b6001600360008573ffffffffffffffffffffffffffffffffffffffff1673ffffffffffffffffffffffffffffffffffffffff168152602001908152602001600020600082825461100b9190612a37565b925050819055506001600360008473ffffffffffffffffffffffffffffffffffffffff1673ffffffffffffffffffffffffffffffffffffffff16815260200190815260200160002060008282546110629190612956565b92505081905550816002600083815260200190815260200160002060006101000a81548173ffffffffffffffffffffffffffffffffffffffff021916908373ffffffffffffffffffffffffffffffffffffffff160217905550808273ffffffffffffffffffffffffffffffffffffffff168473ffffffffffffffffffffffffffffffffffffffff167fddf252ad1be2c89b69c2b068fc378daa952ba7f163c4a11628f55a4df523b3ef60405160405180910390a4505050565b8173ffffffffffffffffffffffffffffffffffffffff168373ffffffffffffffffffffffffffffffffffffffff16141561118a576040517f08c379a0000000000000000000000000000000000000000000000000000000008152600401611181906126d1565b60405180910390fd5b80600560008573ffffffffffffffffffffffffffffffffffffffff1673ffffffffffffffffffffffffffffffffffffffff16815260200190815260200160002060008473ffffffffffffffffffffffffffffffffffffffff1673ffffffffffffffffffffffffffffffffffffffff16815260200190815260200160002060006101000a81548160ff0219169083151502179055508173ffffffffffffffffffffffffffffffffffffffff168373ffffffffffffffffffffffffffffffffffffffff167f17307eab39ab6107e8899845ad3d59bd9653f200f220920489ca2b5937696c318360405161127b91906125f6565b60405180910390a3505050565b611293848484610ebf565b61129f848484846116e3565b6112de576040517f08c379a00000000000000000000000000000000000000000000000000000000081526004016112d590612671565b60405180910390fd5b50505050565b606060405180602001604052806000815250905090565b606061130682610cb4565b611345576040517f08c379a000000000000000000000000000000000000000000000000000000000815260040161133c90612811565b60405180910390fd5b600061134f6112e4565b9050600081511161136f576040518060200160405280600081525061139a565b806113798461187a565b60405160200161138a9291906124ca565b6040516020818303038152906040525b915050919050565b600081600001549050919050565b6113ca828260405180602001604052806000815250611a27565b5050565b606060008251905060008114156113f75760405180602001604052806000815250915050611587565b600060036002836114089190612956565b61141291906129ac565b600461141e91906129dd565b9050600060208261142f9190612956565b67ffffffffffffffff81111561146e577f4e487b7100000000000000000000000000000000000000000000000000000000600052604160045260246000fd5b6040519080825280601f01601f1916602001820160405280156114a05781602001600182028036833780820191505090505b50905060006040518060600160405280604081526020016132e7604091399050600181016020830160005b868110156115445760038101905062ffffff818a015116603f8160121c168401518060081b905060ff603f83600c1c1686015116810190508060081b905060ff603f8360061c1686015116810190508060081b905060ff603f831686015116810190508060e01b905080845260048401935050506114cb565b50600386066001811461155e576002811461156e57611579565b613d3d60f01b6002830352611579565b603d60f81b60018303525b508484525050819450505050505b919050565b61159582610cb4565b6115d4576040517f08c379a00000000000000000000000000000000000000000000000000000000081526004016115cb90612771565b60405180910390fd5b806006600084815260200190815260200160002090805190602001906115fb929190611c63565b505050565b61169a83838360405160240161161893929190612633565b6040516020818303038152906040527fe3849f79000000000000000000000000000000000000000000000000000000007bffffffffffffffffffffffffffffffffffffffffffffffffffffffff19166020820180517bffffffffffffffffffffffffffffffffffffffffffffffffffffffff83818316178352505050506116b5565b505050565b6001816000016000828254019250508190555050565b60008151905060006a636f6e736f6c652e6c6f679050602083016000808483855afa5050505050565b505050565b60006117048473ffffffffffffffffffffffffffffffffffffffff16611a82565b1561186d578373ffffffffffffffffffffffffffffffffffffffff1663150b7a0261172d610d20565b8786866040518563ffffffff1660e01b815260040161174f94939291906125aa565b602060405180830381600087803b15801561176957600080fd5b505af192505050801561179a57506040513d601f19601f82011682018060405250810190611797919061200f565b60015b61181d573d80600081146117ca576040519150601f19603f3d011682016040523d82523d6000602084013e6117cf565b606091505b50600081511415611815576040517f08c379a000000000000000000000000000000000000000000000000000000000815260040161180c90612671565b60405180910390fd5b805181602001fd5b63150b7a0260e01b7bffffffffffffffffffffffffffffffffffffffffffffffffffffffff1916817bffffffffffffffffffffffffffffffffffffffffffffffffffffffff191614915050611872565b600190505b949350505050565b606060008214156118c2576040518060400160405280600181526020017f30000000000000000000000000000000000000000000000000000000000000008152509050611a22565b600082905060005b600082146118f45780806118dd90612b84565b915050600a826118ed91906129ac565b91506118ca565b60008167ffffffffffffffff811115611936577f4e487b7100000000000000000000000000000000000000000000000000000000600052604160045260246000fd5b6040519080825280601f01601f1916602001820160405280156119685781602001600182028036833780820191505090505b5090505b60008514611a1b576001826119819190612a37565b9150600a856119909190612bcd565b603061199c9190612956565b60f81b8183815181106119d8577f4e487b7100000000000000000000000000000000000000000000000000000000600052603260045260246000fd5b60200101907effffffffffffffffffffffffffffffffffffffffffffffffffffffffffffff1916908160001a905350600a85611a1491906129ac565b945061196c565b8093505050505b919050565b611a318383611a95565b611a3e60008484846116e3565b611a7d576040517f08c379a0000000000000000000000000000000000000000000000000000000008152600401611a7490612671565b60405180910390fd5b505050565b600080823b905060008111915050919050565b600073ffffffffffffffffffffffffffffffffffffffff168273ffffffffffffffffffffffffffffffffffffffff161415611b05576040517f08c379a0000000000000000000000000000000000000000000000000000000008152600401611afc90612791565b60405180910390fd5b611b0e81610cb4565b15611b4e576040517f08c379a0000000000000000000000000000000000000000000000000000000008152600401611b4590612691565b60405180910390fd5b611b5a600083836116de565b6001600360008473ffffffffffffffffffffffffffffffffffffffff1673ffffffffffffffffffffffffffffffffffffffff1681526020019081526020016000206000828254611baa9190612956565b92505081905550816002600083815260200190815260200160002060006101000a81548173ffffffffffffffffffffffffffffffffffffffff021916908373ffffffffffffffffffffffffffffffffffffffff160217905550808273ffffffffffffffffffffffffffffffffffffffff16600073ffffffffffffffffffffffffffffffffffffffff167fddf252ad1be2c89b69c2b068fc378daa952ba7f163c4a11628f55a4df523b3ef60405160405180910390a45050565b828054611c6f90612b21565b90600052602060002090601f016020900481019282611c915760008555611cd8565b82601f10611caa57805160ff1916838001178555611cd8565b82800160010185558215611cd8579182015b82811115611cd7578251825591602001919060010190611cbc565b5b509050611ce59190611ce9565b5090565b5b80821115611d02576000816000905550600101611cea565b5090565b6000611d19611d14846128b1565b61288c565b905082815260208101848484011115611d3157600080fd5b611d3c848285612adf565b509392505050565b6000611d57611d52846128e2565b61288c565b905082815260208101848484011115611d6f57600080fd5b611d7a848285612adf565b509392505050565b600081359050611d9181613265565b92915050565b600081359050611da68161327c565b92915050565b600081359050611dbb81613293565b92915050565b600081519050611dd081613293565b92915050565b600082601f830112611de757600080fd5b8135611df7848260208601611d06565b91505092915050565b600082601f830112611e1157600080fd5b8135611e21848260208601611d44565b91505092915050565b600081359050611e39816132aa565b92915050565b600060208284031215611e5157600080fd5b6000611e5f84828501611d82565b91505092915050565b60008060408385031215611e7b57600080fd5b6000611e8985828601611d82565b9250506020611e9a85828601611d82565b9150509250929050565b600080600060608486031215611eb957600080fd5b6000611ec786828701611d82565b9350506020611ed886828701611d82565b9250506040611ee986828701611e2a565b9150509250925092565b60008060008060808587031215611f0957600080fd5b6000611f1787828801611d82565b9450506020611f2887828801611d82565b9350506040611f3987828801611e2a565b925050606085013567ffffffffffffffff811115611f5657600080fd5b611f6287828801611dd6565b91505092959194509250565b60008060408385031215611f8157600080fd5b6000611f8f85828601611d82565b9250506020611fa085828601611d97565b9150509250929050565b60008060408385031215611fbd57600080fd5b6000611fcb85828601611d82565b9250506020611fdc85828601611e2a565b9150509250929050565b600060208284031215611ff857600080fd5b600061200684828501611dac565b91505092915050565b60006020828403121561202157600080fd5b600061202f84828501611dc1565b91505092915050565b60008060006060848603121561204d57600080fd5b600084013567ffffffffffffffff81111561206757600080fd5b61207386828701611e00565b935050602084013567ffffffffffffffff81111561209057600080fd5b61209c86828701611e00565b925050604084013567ffffffffffffffff8111156120b957600080fd5b6120c586828701611e00565b9150509250925092565b6000602082840312156120e157600080fd5b60006120ef84828501611e2a565b91505092915050565b61210181612a6b565b82525050565b61211081612a7d565b82525050565b600061212182612913565b61212b8185612929565b935061213b818560208601612aee565b61214481612cba565b840191505092915050565b600061215a8261291e565b612164818561293a565b9350612174818560208601612aee565b61217d81612cba565b840191505092915050565b60006121938261291e565b61219d818561294b565b93506121ad818560208601612aee565b80840191505092915050565b60006121c660258361294b565b91506121d182612ccb565b602582019050919050565b60006121e960138361294b565b91506121f482612d1a565b601382019050919050565b600061220c60328361293a565b915061221782612d43565b604082019050919050565b600061222f601c8361293a565b915061223a82612d92565b602082019050919050565b600061225260248361293a565b915061225d82612dbb565b604082019050919050565b600061227560198361293a565b915061228082612e0a565b602082019050919050565b6000612298602c8361293a565b91506122a382612e33565b604082019050919050565b60006122bb60388361293a565b91506122c682612e82565b604082019050919050565b60006122de602a8361293a565b91506122e982612ed1565b604082019050919050565b600061230160298361293a565b915061230c82612f20565b604082019050919050565b6000612324602e8361293a565b915061232f82612f6f565b604082019050919050565b600061234760028361294b565b915061235282612fbe565b600282019050919050565b600061236a60208361293a565b915061237582612fe7565b602082019050919050565b600061238d600d8361294b565b915061239882613010565b600d82019050919050565b60006123b060318361293a565b91506123bb82613039565b604082019050919050565b60006123d3602c8361293a565b91506123de82613088565b604082019050919050565b60006123f660298361293a565b9150612401826130d7565b604082019050919050565b6000612419602f8361293a565b915061242482613126565b604082019050919050565b600061243c600a8361294b565b915061244782613175565b600a82019050919050565b600061245f60218361293a565b915061246a8261319e565b604082019050919050565b6000612482601d8361294b565b915061248d826131ed565b601d82019050919050565b60006124a560318361293a565b91506124b082613216565b604082019050919050565b6124c481612ad5565b82525050565b60006124d68285612188565b91506124e28284612188565b91508190509392505050565b60006124f9826121b9565b91506125058284612188565b915081905092915050565b600061251b8261242f565b91506125278286612188565b9150612532826121dc565b915061253e8285612188565b915061254982612380565b91506125558284612188565b91506125608261233a565b9150819050949350505050565b600061257882612475565b91506125848284612188565b915081905092915050565b60006020820190506125a460008301846120f8565b92915050565b60006080820190506125bf60008301876120f8565b6125cc60208301866120f8565b6125d960408301856124bb565b81810360608301526125eb8184612116565b905095945050505050565b600060208201905061260b6000830184612107565b92915050565b6000602082019050818103600083015261262b818461214f565b905092915050565b6000606082019050818103600083015261264d818661214f565b905061265c60208301856124bb565b61266960408301846120f8565b949350505050565b6000602082019050818103600083015261268a816121ff565b9050919050565b600060208201905081810360008301526126aa81612222565b9050919050565b600060208201905081810360008301526126ca81612245565b9050919050565b600060208201905081810360008301526126ea81612268565b9050919050565b6000602082019050818103600083015261270a8161228b565b9050919050565b6000602082019050818103600083015261272a816122ae565b9050919050565b6000602082019050818103600083015261274a816122d1565b9050919050565b6000602082019050818103600083015261276a816122f4565b9050919050565b6000602082019050818103600083015261278a81612317565b9050919050565b600060208201905081810360008301526127aa8161235d565b9050919050565b600060208201905081810360008301526127ca816123a3565b9050919050565b600060208201905081810360008301526127ea816123c6565b9050919050565b6000602082019050818103600083015261280a816123e9565b9050919050565b6000602082019050818103600083015261282a8161240c565b9050919050565b6000602082019050818103600083015261284a81612452565b9050919050565b6000602082019050818103600083015261286a81612498565b9050919050565b600060208201905061288660008301846124bb565b92915050565b60006128966128a7565b90506128a28282612b53565b919050565b6000604051905090565b600067ffffffffffffffff8211156128cc576128cb612c8b565b5b6128d582612cba565b9050602081019050919050565b600067ffffffffffffffff8211156128fd576128fc612c8b565b5b61290682612cba565b9050602081019050919050565b600081519050919050565b600081519050919050565b600082825260208201905092915050565b600082825260208201905092915050565b600081905092915050565b600061296182612ad5565b915061296c83612ad5565b9250827fffffffffffffffffffffffffffffffffffffffffffffffffffffffffffffffff038211156129a1576129a0612bfe565b5b828201905092915050565b60006129b782612ad5565b91506129c283612ad5565b9250826129d2576129d1612c2d565b5b828204905092915050565b60006129e882612ad5565b91506129f383612ad5565b9250817fffffffffffffffffffffffffffffffffffffffffffffffffffffffffffffffff0483118215151615612a2c57612a2b612bfe565b5b828202905092915050565b6000612a4282612ad5565b9150612a4d83612ad5565b925082821015612a6057612a5f612bfe565b5b828203905092915050565b6000612a7682612ab5565b9050919050565b60008115159050919050565b60007fffffffff0000000000000000000000000000000000000000000000000000000082169050919050565b600073ffffffffffffffffffffffffffffffffffffffff82169050919050565b6000819050919050565b82818337600083830152505050565b60005b83811015612b0c578082015181840152602081019050612af1565b83811115612b1b576000848401525b50505050565b60006002820490506001821680612b3957607f821691505b60208210811415612b4d57612b4c612c5c565b5b50919050565b612b5c82612cba565b810181811067ffffffffffffffff82111715612b7b57612b7a612c8b565b5b80604052505050565b6000612b8f82612ad5565b91507fffffffffffffffffffffffffffffffffffffffffffffffffffffffffffffffff821415612bc257612bc1612bfe565b5b600182019050919050565b6000612bd882612ad5565b9150612be383612ad5565b925082612bf357612bf2612c2d565b5b828206905092915050565b7f4e487b7100000000000000000000000000000000000000000000000000000000600052601160045260246000fd5b7f4e487b7100000000000000000000000000000000000000000000000000000000600052601260045260246000fd5b7f4e487b7100000000000000000000000000000000000000000000000000000000600052602260045260246000fd5b7f4e487b7100000000000000000000000000000000000000000000000000000000600052604160045260246000fd5b6000601f19601f8301169050919050565b7f68747470733a2f2f6e6674707265766965772e30786465762e636f6465732f3f60008201527f636f64653d000000000000000000000000000000000000000000000000000000602082015250565b7f222c20226465736372697074696f6e223a202200000000000000000000000000600082015250565b7f4552433732313a207472616e7366657220746f206e6f6e20455243373231526560008201527f63656976657220696d706c656d656e7465720000000000000000000000000000602082015250565b7f4552433732313a20746f6b656e20616c7265616479206d696e74656400000000600082015250565b7f4552433732313a207472616e7366657220746f20746865207a65726f2061646460008201527f7265737300000000000000000000000000000000000000000000000000000000602082015250565b7f4552433732313a20617070726f766520746f2063616c6c657200000000000000600082015250565b7f4552433732313a206f70657261746f7220717565727920666f72206e6f6e657860008201527f697374656e7420746f6b656e0000000000000000000000000000000000000000602082015250565b7f4552433732313a20617070726f76652063616c6c6572206973206e6f74206f7760008201527f6e6572206e6f7220617070726f76656420666f7220616c6c0000000000000000602082015250565b7f4552433732313a2062616c616e636520717565727920666f7220746865207a6560008201527f726f206164647265737300000000000000000000000000000000000000000000602082015250565b7f4552433732313a206f776e657220717565727920666f72206e6f6e657869737460008201527f656e7420746f6b656e0000000000000000000000000000000000000000000000602082015250565b7f45524337323155524953746f726167653a2055524920736574206f66206e6f6e60008201527f6578697374656e7420746f6b656e000000000000000000000000000000000000602082015250565b7f227d000000000000000000000000000000000000000000000000000000000000600082015250565b7f4552433732313a206d696e7420746f20746865207a65726f2061646472657373600082015250565b7f222c2022696d616765223a202200000000000000000000000000000000000000600082015250565b7f45524337323155524953746f726167653a2055524920717565727920666f722060008201527f6e6f6e6578697374656e7420746f6b656e000000000000000000000000000000602082015250565b7f4552433732313a20617070726f76656420717565727920666f72206e6f6e657860008201527f697374656e7420746f6b656e0000000000000000000000000000000000000000602082015250565b7f4552433732313a207472616e73666572206f6620746f6b656e2074686174206960008201527f73206e6f74206f776e0000000000000000000000000000000000000000000000602082015250565b7f4552433732314d657461646174613a2055524920717565727920666f72206e6f60008201527f6e6578697374656e7420746f6b656e0000000000000000000000000000000000602082015250565b7f7b226e616d65223a202200000000000000000000000000000000000000000000600082015250565b7f4552433732313a20617070726f76616c20746f2063757272656e74206f776e6560008201527f7200000000000000000000000000000000000000000000000000000000000000602082015250565b7f646174613a6170706c69636174696f6e2f6a736f6e3b6261736536342c000000600082015250565b7f4552433732313a207472616e736665722063616c6c6572206973206e6f74206f60008201527f776e6572206e6f7220617070726f766564000000000000000000000000000000602082015250565b61326e81612a6b565b811461327957600080fd5b50565b61328581612a7d565b811461329057600080fd5b50565b61329c81612a89565b81146132a757600080fd5b50565b6132b381612ad5565b81146132be57600080fd5b5056fe416e204e465420772f20494420257320686173206265656e206d696e74656420746f2025734142434445464748494a4b4c4d4e4f505152535455565758595a6162636465666768696a6b6c6d6e6f707172737475767778797a303132333435363738392b2fa2646970667358221220173cdde3dcb8bde8313df0fe0763b4b17daf7961096057fe0488ee0b5dc3a27c64736f6c63430008040033",
  "linkReferences": {},
  "deployedLinkReferences": {}
}