{
  "_format": "hh-sol-artifact-1",
  "contractName": "Domains",
  "sourceName": "contracts/Domains.sol",
  "abi": [
    {
      "inputs": [
        {
          "internalType": "string",
          "name": "_tld",
          "type": "string"
        }
      ],
      "stateMutability": "payable",
      "type": "constructor"
    },
    {
      "anonymous": false,
      "inputs": [
        {
          "indexed": true,
          "internalType": "address",
          "name": "owner",
          "type": "address"
        },
        {
          "indexed": true,
          "internalType": "address",
          "name": "approved",
          "type": "address"
        },
        {
          "indexed": true,
          "internalType": "uint256",
          "name": "tokenId",
          "type": "uint256"
        }
      ],
      "name": "Approval",
      "type": "event"
    },
    {
      "anonymous": false,
      "inputs": [
        {
          "indexed": true,
          "internalType": "address",
          "name": "owner",
          "type": "address"
        },
        {
          "indexed": true,
          "internalType": "address",
          "name": "operator",
          "type": "address"
        },
        {
          "indexed": false,
          "internalType": "bool",
          "name": "approved",
          "type": "bool"
        }
      ],
      "name": "ApprovalForAll",
      "type": "event"
    },
    {
      "anonymous": false,
      "inputs": [
        {
          "indexed": true,
          "internalType": "address",
          "name": "from",
          "type": "address"
        },
        {
          "indexed": true,
          "internalType": "address",
          "name": "to",
          "type": "address"
        },
        {
          "indexed": true,
          "internalType": "uint256",
          "name": "tokenId",
          "type": "uint256"
        }
      ],
      "name": "Transfer",
      "type": "event"
    },
    {
      "inputs": [
        {
          "internalType": "address",
          "name": "to",
          "type": "address"
        },
        {
          "internalType": "uint256",
          "name": "tokenId",
          "type": "uint256"
        }
      ],
      "name": "approve",
      "outputs": [],
      "stateMutability": "nonpayable",
      "type": "function"
    },
    {
      "inputs": [
        {
          "internalType": "address",
          "name": "owner",
          "type": "address"
        }
      ],
      "name": "balanceOf",
      "outputs": [
        {
          "internalType": "uint256",
          "name": "",
          "type": "uint256"
        }
      ],
      "stateMutability": "view",
      "type": "function"
    },
    {
      "inputs": [
        {
          "internalType": "string",
          "name": "",
          "type": "string"
        }
      ],
      "name": "domains",
      "outputs": [
        {
          "internalType": "address",
          "name": "",
          "type": "address"
        }
      ],
      "stateMutability": "view",
      "type": "function"
    },
    {
      "inputs": [
        {
          "internalType": "string",
          "name": "_name",
          "type": "string"
        }
      ],
      "name": "getAddress",
      "outputs": [
        {
          "internalType": "address",
          "name": "",
          "type": "address"
        }
      ],
      "stateMutability": "view",
      "type": "function"
    },
    {
      "inputs": [
        {
          "internalType": "uint256",
          "name": "tokenId",
          "type": "uint256"
        }
      ],
      "name": "getApproved",
      "outputs": [
        {
          "internalType": "address",
          "name": "",
          "type": "address"
        }
      ],
      "stateMutability": "view",
      "type": "function"
    },
    {
      "inputs": [
        {
          "internalType": "string",
          "name": "_name",
          "type": "string"
        }
      ],
      "name": "getRecord",
      "outputs": [
        {
          "internalType": "string",
          "name": "",
          "type": "string"
        }
      ],
      "stateMutability": "view",
      "type": "function"
    },
    {
      "inputs": [
        {
          "internalType": "address",
          "name": "owner",
          "type": "address"
        },
        {
          "internalType": "address",
          "name": "operator",
          "type": "address"
        }
      ],
      "name": "isApprovedForAll",
      "outputs": [
        {
          "internalType": "bool",
          "name": "",
          "type": "bool"
        }
      ],
      "stateMutability": "view",
      "type": "function"
    },
    {
      "inputs": [],
      "name": "name",
      "outputs": [
        {
          "internalType": "string",
          "name": "",
          "type": "string"
        }
      ],
      "stateMutability": "view",
      "type": "function"
    },
    {
      "inputs": [
        {
          "internalType": "uint256",
          "name": "tokenId",
          "type": "uint256"
        }
      ],
      "name": "ownerOf",
      "outputs": [
        {
          "internalType": "address",
          "name": "",
          "type": "address"
        }
      ],
      "stateMutability": "view",
      "type": "function"
    },
    {
      "inputs": [
        {
          "internalType": "string",
          "name": "name",
          "type": "string"
        }
      ],
      "name": "price",
      "outputs": [
        {
          "internalType": "uint256",
          "name": "",
          "type": "uint256"
        }
      ],
      "stateMutability": "pure",
      "type": "function"
    },
    {
      "inputs": [
        {
          "internalType": "string",
          "name": "",
          "type": "string"
        }
      ],
      "name": "records",
      "outputs": [
        {
          "internalType": "string",
          "name": "",
          "type": "string"
        }
      ],
      "stateMutability": "view",
      "type": "function"
    },
    {
      "inputs": [
        {
          "internalType": "string",
          "name": "_name",
          "type": "string"
        }
      ],
      "name": "register",
      "outputs": [],
      "stateMutability": "payable",
      "type": "function"
    },
    {
      "inputs": [
        {
          "internalType": "address",
          "name": "from",
          "type": "address"
        },
        {
          "internalType": "address",
          "name": "to",
          "type": "address"
        },
        {
          "internalType": "uint256",
          "name": "tokenId",
          "type": "uint256"
        }
      ],
      "name": "safeTransferFrom",
      "outputs": [],
      "stateMutability": "nonpayable",
      "type": "function"
    },
    {
      "inputs": [
        {
          "internalType": "address",
          "name": "from",
          "type": "address"
        },
        {
          "internalType": "address",
          "name": "to",
          "type": "address"
        },
        {
          "internalType": "uint256",
          "name": "tokenId",
          "type": "uint256"
        },
        {
          "internalType": "bytes",
          "name": "_data",
          "type": "bytes"
        }
      ],
      "name": "safeTransferFrom",
      "outputs": [],
      "stateMutability": "nonpayable",
      "type": "function"
    },
    {
      "inputs": [
        {
          "internalType": "address",
          "name": "operator",
          "type": "address"
        },
        {
          "internalType": "bool",
          "name": "approved",
          "type": "bool"
        }
      ],
      "name": "setApprovalForAll",
      "outputs": [],
      "stateMutability": "nonpayable",
      "type": "function"
    },
    {
      "inputs": [
        {
          "internalType": "string",
          "name": "_name",
          "type": "string"
        },
        {
          "internalType": "string",
          "name": "_record",
          "type": "string"
        }
      ],
      "name": "setRecord",
      "outputs": [],
      "stateMutability": "nonpayable",
      "type": "function"
    },
    {
      "inputs": [
        {
          "internalType": "bytes4",
          "name": "interfaceId",
          "type": "bytes4"
        }
      ],
      "name": "supportsInterface",
      "outputs": [
        {
          "internalType": "bool",
          "name": "",
          "type": "bool"
        }
      ],
      "stateMutability": "view",
      "type": "function"
    },
    {
      "inputs": [],
      "name": "symbol",
      "outputs": [
        {
          "internalType": "string",
          "name": "",
          "type": "string"
        }
      ],
      "stateMutability": "view",
      "type": "function"
    },
    {
      "inputs": [],
      "name": "tld",
      "outputs": [
        {
          "internalType": "string",
          "name": "",
          "type": "string"
        }
      ],
      "stateMutability": "view",
      "type": "function"
    },
    {
      "inputs": [
        {
          "internalType": "uint256",
          "name": "tokenId",
          "type": "uint256"
        }
      ],
      "name": "tokenURI",
      "outputs": [
        {
          "internalType": "string",
          "name": "",
          "type": "string"
        }
      ],
      "stateMutability": "view",
      "type": "function"
    },
    {
      "inputs": [
        {
          "internalType": "address",
          "name": "from",
          "type": "address"
        },
        {
          "internalType": "address",
          "name": "to",
          "type": "address"
        },
        {
          "internalType": "uint256",
          "name": "tokenId",
          "type": "uint256"
        }
      ],
      "name": "transferFrom",
      "outputs": [],
      "stateMutability": "nonpayable",
      "type": "function"
    },
    {
      "inputs": [],
      "name": "withdraw",
      "outputs": [],
      "stateMutability": "payable",
      "type": "function"
    }
  ],
  "bytecode": "0x6080604052604051806108a0016040528061086b8152602001620040cb61086b9139600a908051906020019062000038929190620001c1565b506040518060400160405280600d81526020017f3c2f746578743e3c2f7376673e00000000000000000000000000000000000000815250600b908051906020019062000086929190620001c1565b5060405162004936380380620049368339818101604052810190620000ac9190620002e3565b6040518060400160405280601081526020017f446576204e616d652053657276696365000000000000000000000000000000008152506040518060400160405280600381526020017f444e530000000000000000000000000000000000000000000000000000000000815250816000908051906020019062000130929190620001c1565b50806001908051906020019062000149929190620001c1565b505050806008908051906020019062000164929190620001c1565b50732c9584a1f091805284a7e27403cefd18ea6f1a90600960006101000a81548173ffffffffffffffffffffffffffffffffffffffff021916908373ffffffffffffffffffffffffffffffffffffffff1602179055505062000498565b828054620001cf90620003bd565b90600052602060002090601f016020900481019282620001f357600085556200023f565b82601f106200020e57805160ff19168380011785556200023f565b828001600101855582156200023f579182015b828111156200023e57825182559160200191906001019062000221565b5b5090506200024e919062000252565b5090565b5b808211156200026d57600081600090555060010162000253565b5090565b600062000288620002828462000351565b62000328565b905082815260208101848484011115620002a157600080fd5b620002ae84828562000387565b509392505050565b600082601f830112620002c857600080fd5b8151620002da84826020860162000271565b91505092915050565b600060208284031215620002f657600080fd5b600082015167ffffffffffffffff8111156200031157600080fd5b6200031f84828501620002b6565b91505092915050565b60006200033462000347565b9050620003428282620003f3565b919050565b6000604051905090565b600067ffffffffffffffff8211156200036f576200036e62000458565b5b6200037a8262000487565b9050602081019050919050565b60005b83811015620003a75780820151818401526020810190506200038a565b83811115620003b7576000848401525b50505050565b60006002820490506001821680620003d657607f821691505b60208210811415620003ed57620003ec62000429565b5b50919050565b620003fe8262000487565b810181811067ffffffffffffffff8211171562000420576200041f62000458565b5b80604052505050565b7f4e487b7100000000000000000000000000000000000000000000000000000000600052602260045260246000fd5b7f4e487b7100000000000000000000000000000000000000000000000000000000600052604160045260246000fd5b6000601f19601f8301169050919050565b613c2380620004a86000396000f3fe6080604052600436106101355760003560e01c80636352211e116100ab578063bf40fac11161006f578063bf40fac11461043d578063c1880a981461047a578063c87b56dd146104a3578063e985e9c5146104e0578063f2c298be1461051d578063fe2c61981461053957610135565b80636352211e1461034657806370a082311461038357806395d89b41146103c0578063a22cb465146103eb578063b88d4fde1461041457610135565b806323b872dd116100fd57806323b872dd14610245578063264492351461026e5780632d551432146102ab5780633ccfd60b146102d657806342842e0e146102e0578063541e771d1461030957610135565b806301ffc9a71461013a57806306fdde0314610177578063081812fc146101a2578063095ea7b3146101df57806311dd884514610208575b600080fd5b34801561014657600080fd5b50610161600480360381019061015c91906127eb565b610576565b60405161016e9190612ee5565b60405180910390f35b34801561018357600080fd5b5061018c610658565b6040516101999190612f00565b60405180910390f35b3480156101ae57600080fd5b506101c960048036038101906101c491906128ea565b6106ea565b6040516101d69190612e7e565b60405180910390f35b3480156101eb57600080fd5b50610206600480360381019061020191906127af565b61076f565b005b34801561021457600080fd5b5061022f600480360381019061022a919061283d565b610887565b60405161023c9190612f00565b60405180910390f35b34801561025157600080fd5b5061026c600480360381019061026791906126a9565b610937565b005b34801561027a57600080fd5b506102956004803603810190610290919061283d565b610997565b6040516102a29190612e7e565b60405180910390f35b3480156102b757600080fd5b506102c06109e0565b6040516102cd9190612f00565b60405180910390f35b6102de610a6e565b005b3480156102ec57600080fd5b50610307600480360381019061030291906126a9565b610ad9565b005b34801561031557600080fd5b50610330600480360381019061032b919061283d565b610af9565b60405161033d9190612f00565b60405180910390f35b34801561035257600080fd5b5061036d600480360381019061036891906128ea565b610baf565b60405161037a9190612e7e565b60405180910390f35b34801561038f57600080fd5b506103aa60048036038101906103a59190612644565b610c61565b6040516103b79190613122565b60405180910390f35b3480156103cc57600080fd5b506103d5610d19565b6040516103e29190612f00565b60405180910390f35b3480156103f757600080fd5b50610412600480360381019061040d9190612773565b610dab565b005b34801561042057600080fd5b5061043b600480360381019061043691906126f8565b610dc1565b005b34801561044957600080fd5b50610464600480360381019061045f919061283d565b610e23565b6040516104719190612e7e565b60405180910390f35b34801561048657600080fd5b506104a1600480360381019061049c919061287e565b610e6b565b005b3480156104af57600080fd5b506104ca60048036038101906104c591906128ea565b610f18565b6040516104d79190612f00565b60405180910390f35b3480156104ec57600080fd5b506105076004803603810190610502919061266d565b61106a565b6040516105149190612ee5565b60405180910390f35b6105376004803603810190610532919061283d565b6110fe565b005b34801561054557600080fd5b50610560600480360381019061055b919061283d565b6112ea565b60405161056d9190613122565b60405180910390f35b60007f80ac58cd000000000000000000000000000000000000000000000000000000007bffffffffffffffffffffffffffffffffffffffffffffffffffffffff1916827bffffffffffffffffffffffffffffffffffffffffffffffffffffffff1916148061064157507f5b5e139f000000000000000000000000000000000000000000000000000000007bffffffffffffffffffffffffffffffffffffffffffffffffffffffff1916827bffffffffffffffffffffffffffffffffffffffffffffffffffffffff1916145b80610651575061065082611310565b5b9050919050565b606060008054610667906133e7565b80601f0160208091040260200160405190810160405280929190818152602001828054610693906133e7565b80156106e05780601f106106b5576101008083540402835291602001916106e0565b820191906000526020600020905b8154815290600101906020018083116106c357829003601f168201915b5050505050905090565b60006106f58261137a565b610734576040517f08c379a000000000000000000000000000000000000000000000000000000000815260040161072b906130a2565b60405180910390fd5b6004600083815260200190815260200160002060009054906101000a900473ffffffffffffffffffffffffffffffffffffffff169050919050565b600061077a82610baf565b90508073ffffffffffffffffffffffffffffffffffffffff168373ffffffffffffffffffffffffffffffffffffffff1614156107eb576040517f08c379a00000000000000000000000000000000000000000000000000000000081526004016107e2906130e2565b60405180910390fd5b8073ffffffffffffffffffffffffffffffffffffffff1661080a6113e6565b73ffffffffffffffffffffffffffffffffffffffff1614806108395750610838816108336113e6565b61106a565b5b610878576040517f08c379a000000000000000000000000000000000000000000000000000000000815260040161086f90612fe2565b60405180910390fd5b61088283836113ee565b505050565b6060600d826040516108999190612d64565b908152602001604051809103902080546108b2906133e7565b80601f01602080910402602001604051908101604052809291908181526020018280546108de906133e7565b801561092b5780601f106109005761010080835404028352916020019161092b565b820191906000526020600020905b81548152906001019060200180831161090e57829003601f168201915b50505050509050919050565b6109486109426113e6565b826114a7565b610987576040517f08c379a000000000000000000000000000000000000000000000000000000000815260040161097e90613102565b60405180910390fd5b610992838383611585565b505050565b600c818051602081018201805184825260208301602085012081835280955050505050506000915054906101000a900473ffffffffffffffffffffffffffffffffffffffff1681565b600880546109ed906133e7565b80601f0160208091040260200160405190810160405280929190818152602001828054610a19906133e7565b8015610a665780601f10610a3b57610100808354040283529160200191610a66565b820191906000526020600020905b815481529060010190602001808311610a4957829003601f168201915b505050505081565b600960009054906101000a900473ffffffffffffffffffffffffffffffffffffffff1673ffffffffffffffffffffffffffffffffffffffff166108fc479081150290604051600060405180830381858888f19350505050158015610ad6573d6000803e3d6000fd5b50565b610af483838360405180602001604052806000815250610dc1565b505050565b600d818051602081018201805184825260208301602085012081835280955050505050506000915090508054610b2e906133e7565b80601f0160208091040260200160405190810160405280929190818152602001828054610b5a906133e7565b8015610ba75780601f10610b7c57610100808354040283529160200191610ba7565b820191906000526020600020905b815481529060010190602001808311610b8a57829003601f168201915b505050505081565b6000806002600084815260200190815260200160002060009054906101000a900473ffffffffffffffffffffffffffffffffffffffff169050600073ffffffffffffffffffffffffffffffffffffffff168173ffffffffffffffffffffffffffffffffffffffff161415610c58576040517f08c379a0000000000000000000000000000000000000000000000000000000008152600401610c4f90613022565b60405180910390fd5b80915050919050565b60008073ffffffffffffffffffffffffffffffffffffffff168273ffffffffffffffffffffffffffffffffffffffff161415610cd2576040517f08c379a0000000000000000000000000000000000000000000000000000000008152600401610cc990613002565b60405180910390fd5b600360008373ffffffffffffffffffffffffffffffffffffffff1673ffffffffffffffffffffffffffffffffffffffff168152602001908152602001600020549050919050565b606060018054610d28906133e7565b80601f0160208091040260200160405190810160405280929190818152602001828054610d54906133e7565b8015610da15780601f10610d7657610100808354040283529160200191610da1565b820191906000526020600020905b815481529060010190602001808311610d8457829003601f168201915b5050505050905090565b610dbd610db66113e6565b83836117ec565b5050565b610dd2610dcc6113e6565b836114a7565b610e11576040517f08c379a0000000000000000000000000000000000000000000000000000000008152600401610e0890613102565b60405180910390fd5b610e1d84848484611959565b50505050565b6000600c82604051610e359190612d64565b908152602001604051809103902060009054906101000a900473ffffffffffffffffffffffffffffffffffffffff169050919050565b3373ffffffffffffffffffffffffffffffffffffffff16600c83604051610e929190612d64565b908152602001604051809103902060009054906101000a900473ffffffffffffffffffffffffffffffffffffffff1673ffffffffffffffffffffffffffffffffffffffff1614610ee157600080fd5b80600d83604051610ef29190612d64565b90815260200160405180910390209080519060200190610f13929190612468565b505050565b6060610f238261137a565b610f62576040517f08c379a0000000000000000000000000000000000000000000000000000000008152600401610f5990613082565b60405180910390fd5b6000600660008481526020019081526020016000208054610f82906133e7565b80601f0160208091040260200160405190810160405280929190818152602001828054610fae906133e7565b8015610ffb5780601f10610fd057610100808354040283529160200191610ffb565b820191906000526020600020905b815481529060010190602001808311610fde57829003601f168201915b50505050509050600061100c6119b5565b9050600081511415611022578192505050611065565b60008251111561105757808260405160200161103f929190612d7b565b60405160208183030381529060405292505050611065565b611060846119cc565b925050505b919050565b6000600560008473ffffffffffffffffffffffffffffffffffffffff1673ffffffffffffffffffffffffffffffffffffffff16815260200190815260200160002060008373ffffffffffffffffffffffffffffffffffffffff1673ffffffffffffffffffffffffffffffffffffffff16815260200190815260200160002060009054906101000a900460ff16905092915050565b600073ffffffffffffffffffffffffffffffffffffffff16600c826040516111269190612d64565b908152602001604051809103902060009054906101000a900473ffffffffffffffffffffffffffffffffffffffff1673ffffffffffffffffffffffffffffffffffffffff161461117557600080fd5b6000611180826112ea565b90508034101561118f57600080fd5b60008260086040516020016111a5929190612d9f565b60405160208183030381529060405290506000600a82600b6040516020016111cf93929190612dce565b604051602081830303815290604052905060006111ec6007611a73565b905060006111f984611a81565b9050600061120682611c5c565b9050600061123e8661121787611e09565b8460405160200161122a93929190612dff565b604051602081830303815290604052611e09565b90506000816040516020016112539190612e5c565b604051602081830303815290604052905061126e3386611fc7565b6112788582611fe5565b33600c8a6040516112899190612d64565b908152602001604051809103902060006101000a81548173ffffffffffffffffffffffffffffffffffffffff021916908373ffffffffffffffffffffffffffffffffffffffff1602179055506112df6007612059565b505050505050505050565b6000806112f683611a81565b90506000811161130557600080fd5b6101fe915050919050565b60007f01ffc9a7000000000000000000000000000000000000000000000000000000007bffffffffffffffffffffffffffffffffffffffffffffffffffffffff1916827bffffffffffffffffffffffffffffffffffffffffffffffffffffffff1916149050919050565b60008073ffffffffffffffffffffffffffffffffffffffff166002600084815260200190815260200160002060009054906101000a900473ffffffffffffffffffffffffffffffffffffffff1673ffffffffffffffffffffffffffffffffffffffff1614159050919050565b600033905090565b816004600083815260200190815260200160002060006101000a81548173ffffffffffffffffffffffffffffffffffffffff021916908373ffffffffffffffffffffffffffffffffffffffff160217905550808273ffffffffffffffffffffffffffffffffffffffff1661146183610baf565b73ffffffffffffffffffffffffffffffffffffffff167f8c5be1e5ebec7d5bd14f71427d1e84f3dd0314c0f7b2291e5b200ac8c7c3b92560405160405180910390a45050565b60006114b28261137a565b6114f1576040517f08c379a00000000000000000000000000000000000000000000000000000000081526004016114e890612fc2565b60405180910390fd5b60006114fc83610baf565b90508073ffffffffffffffffffffffffffffffffffffffff168473ffffffffffffffffffffffffffffffffffffffff16148061156b57508373ffffffffffffffffffffffffffffffffffffffff16611553846106ea565b73ffffffffffffffffffffffffffffffffffffffff16145b8061157c575061157b818561106a565b5b91505092915050565b8273ffffffffffffffffffffffffffffffffffffffff166115a582610baf565b73ffffffffffffffffffffffffffffffffffffffff16146115fb576040517f08c379a00000000000000000000000000000000000000000000000000000000081526004016115f290612f42565b60405180910390fd5b600073ffffffffffffffffffffffffffffffffffffffff168273ffffffffffffffffffffffffffffffffffffffff16141561166b576040517f08c379a000000000000000000000000000000000000000000000000000000000815260040161166290612f82565b60405180910390fd5b61167683838361206f565b6116816000826113ee565b6001600360008573ffffffffffffffffffffffffffffffffffffffff1673ffffffffffffffffffffffffffffffffffffffff16815260200190815260200160002060008282546116d191906132fd565b925050819055506001600360008473ffffffffffffffffffffffffffffffffffffffff1673ffffffffffffffffffffffffffffffffffffffff1681526020019081526020016000206000828254611728919061321c565b92505081905550816002600083815260200190815260200160002060006101000a81548173ffffffffffffffffffffffffffffffffffffffff021916908373ffffffffffffffffffffffffffffffffffffffff160217905550808273ffffffffffffffffffffffffffffffffffffffff168473ffffffffffffffffffffffffffffffffffffffff167fddf252ad1be2c89b69c2b068fc378daa952ba7f163c4a11628f55a4df523b3ef60405160405180910390a46117e7838383612074565b505050565b8173ffffffffffffffffffffffffffffffffffffffff168373ffffffffffffffffffffffffffffffffffffffff16141561185b576040517f08c379a000000000000000000000000000000000000000000000000000000000815260040161185290612fa2565b60405180910390fd5b80600560008573ffffffffffffffffffffffffffffffffffffffff1673ffffffffffffffffffffffffffffffffffffffff16815260200190815260200160002060008473ffffffffffffffffffffffffffffffffffffffff1673ffffffffffffffffffffffffffffffffffffffff16815260200190815260200160002060006101000a81548160ff0219169083151502179055508173ffffffffffffffffffffffffffffffffffffffff168373ffffffffffffffffffffffffffffffffffffffff167f17307eab39ab6107e8899845ad3d59bd9653f200f220920489ca2b5937696c318360405161194c9190612ee5565b60405180910390a3505050565b611964848484611585565b61197084848484612079565b6119af576040517f08c379a00000000000000000000000000000000000000000000000000000000081526004016119a690612f22565b60405180910390fd5b50505050565b606060405180602001604052806000815250905090565b60606119d78261137a565b611a16576040517f08c379a0000000000000000000000000000000000000000000000000000000008152600401611a0d906130c2565b60405180910390fd5b6000611a206119b5565b90506000815111611a405760405180602001604052806000815250611a6b565b80611a4a84611c5c565b604051602001611a5b929190612d7b565b6040516020818303038152906040525b915050919050565b600081600001549050919050565b60008060008084519050600092505b80821015611c51576000858381518110611ad3577f4e487b7100000000000000000000000000000000000000000000000000000000600052603260045260246000fd5b602001015160f81c60f81b9050608060f81b817effffffffffffffffffffffffffffffffffffffffffffffffffffffffffffff19161015611b2257600183611b1b919061321c565b9250611c3d565b60e060f81b817effffffffffffffffffffffffffffffffffffffffffffffffffffffffffffff19161015611b6457600283611b5d919061321c565b9250611c3c565b60f060f81b817effffffffffffffffffffffffffffffffffffffffffffffffffffffffffffff19161015611ba657600383611b9f919061321c565b9250611c3b565b60f8801b817effffffffffffffffffffffffffffffffffffffffffffffffffffffffffffff19161015611be757600483611be0919061321c565b9250611c3a565b60fc60f81b817effffffffffffffffffffffffffffffffffffffffffffffffffffffffffffff19161015611c2957600583611c22919061321c565b9250611c39565b600683611c36919061321c565b92505b5b5b5b5b508280611c499061344a565b935050611a90565b829350505050919050565b60606000821415611ca4576040518060400160405280600181526020017f30000000000000000000000000000000000000000000000000000000000000008152509050611e04565b600082905060005b60008214611cd6578080611cbf9061344a565b915050600a82611ccf9190613272565b9150611cac565b60008167ffffffffffffffff811115611d18577f4e487b7100000000000000000000000000000000000000000000000000000000600052604160045260246000fd5b6040519080825280601f01601f191660200182016040528015611d4a5781602001600182028036833780820191505090505b5090505b60008514611dfd57600182611d6391906132fd565b9150600a85611d729190613493565b6030611d7e919061321c565b60f81b818381518110611dba577f4e487b7100000000000000000000000000000000000000000000000000000000600052603260045260246000fd5b60200101907effffffffffffffffffffffffffffffffffffffffffffffffffffffffffffff1916908160001a905350600a85611df69190613272565b9450611d4e565b8093505050505b919050565b60606000825190506000811415611e325760405180602001604052806000815250915050611fc2565b60006003600283611e43919061321c565b611e4d9190613272565b6004611e5991906132a3565b90506000602082611e6a919061321c565b67ffffffffffffffff811115611ea9577f4e487b7100000000000000000000000000000000000000000000000000000000600052604160045260246000fd5b6040519080825280601f01601f191660200182016040528015611edb5781602001600182028036833780820191505090505b5090506000604051806060016040528060408152602001613bae604091399050600181016020830160005b86811015611f7f5760038101905062ffffff818a015116603f8160121c168401518060081b905060ff603f83600c1c1686015116810190508060081b905060ff603f8360061c1686015116810190508060081b905060ff603f831686015116810190508060e01b90508084526004840193505050611f06565b506003860660018114611f995760028114611fa957611fb4565b613d3d60f01b6002830352611fb4565b603d60f81b60018303525b508484525050819450505050505b919050565b611fe1828260405180602001604052806000815250612210565b5050565b611fee8261137a565b61202d576040517f08c379a000000000000000000000000000000000000000000000000000000000815260040161202490613042565b60405180910390fd5b80600660008481526020019081526020016000209080519060200190612054929190612468565b505050565b6001816000016000828254019250508190555050565b505050565b505050565b600061209a8473ffffffffffffffffffffffffffffffffffffffff1661226b565b15612203578373ffffffffffffffffffffffffffffffffffffffff1663150b7a026120c36113e6565b8786866040518563ffffffff1660e01b81526004016120e59493929190612e99565b602060405180830381600087803b1580156120ff57600080fd5b505af192505050801561213057506040513d601f19601f8201168201806040525081019061212d9190612814565b60015b6121b3573d8060008114612160576040519150601f19603f3d011682016040523d82523d6000602084013e612165565b606091505b506000815114156121ab576040517f08c379a00000000000000000000000000000000000000000000000000000000081526004016121a290612f22565b60405180910390fd5b805181602001fd5b63150b7a0260e01b7bffffffffffffffffffffffffffffffffffffffffffffffffffffffff1916817bffffffffffffffffffffffffffffffffffffffffffffffffffffffff191614915050612208565b600190505b949350505050565b61221a838361228e565b6122276000848484612079565b612266576040517f08c379a000000000000000000000000000000000000000000000000000000000815260040161225d90612f22565b60405180910390fd5b505050565b6000808273ffffffffffffffffffffffffffffffffffffffff163b119050919050565b600073ffffffffffffffffffffffffffffffffffffffff168273ffffffffffffffffffffffffffffffffffffffff1614156122fe576040517f08c379a00000000000000000000000000000000000000000000000000000000081526004016122f590613062565b60405180910390fd5b6123078161137a565b15612347576040517f08c379a000000000000000000000000000000000000000000000000000000000815260040161233e90612f62565b60405180910390fd5b6123536000838361206f565b6001600360008473ffffffffffffffffffffffffffffffffffffffff1673ffffffffffffffffffffffffffffffffffffffff16815260200190815260200160002060008282546123a3919061321c565b92505081905550816002600083815260200190815260200160002060006101000a81548173ffffffffffffffffffffffffffffffffffffffff021916908373ffffffffffffffffffffffffffffffffffffffff160217905550808273ffffffffffffffffffffffffffffffffffffffff16600073ffffffffffffffffffffffffffffffffffffffff167fddf252ad1be2c89b69c2b068fc378daa952ba7f163c4a11628f55a4df523b3ef60405160405180910390a461246460008383612074565b5050565b828054612474906133e7565b90600052602060002090601f01602090048101928261249657600085556124dd565b82601f106124af57805160ff19168380011785556124dd565b828001600101855582156124dd579182015b828111156124dc5782518255916020019190600101906124c1565b5b5090506124ea91906124ee565b5090565b5b808211156125075760008160009055506001016124ef565b5090565b600061251e61251984613162565b61313d565b90508281526020810184848401111561253657600080fd5b6125418482856133a5565b509392505050565b600061255c61255784613193565b61313d565b90508281526020810184848401111561257457600080fd5b61257f8482856133a5565b509392505050565b60008135905061259681613b51565b92915050565b6000813590506125ab81613b68565b92915050565b6000813590506125c081613b7f565b92915050565b6000815190506125d581613b7f565b92915050565b600082601f8301126125ec57600080fd5b81356125fc84826020860161250b565b91505092915050565b600082601f83011261261657600080fd5b8135612626848260208601612549565b91505092915050565b60008135905061263e81613b96565b92915050565b60006020828403121561265657600080fd5b600061266484828501612587565b91505092915050565b6000806040838503121561268057600080fd5b600061268e85828601612587565b925050602061269f85828601612587565b9150509250929050565b6000806000606084860312156126be57600080fd5b60006126cc86828701612587565b93505060206126dd86828701612587565b92505060406126ee8682870161262f565b9150509250925092565b6000806000806080858703121561270e57600080fd5b600061271c87828801612587565b945050602061272d87828801612587565b935050604061273e8782880161262f565b925050606085013567ffffffffffffffff81111561275b57600080fd5b612767878288016125db565b91505092959194509250565b6000806040838503121561278657600080fd5b600061279485828601612587565b92505060206127a58582860161259c565b9150509250929050565b600080604083850312156127c257600080fd5b60006127d085828601612587565b92505060206127e18582860161262f565b9150509250929050565b6000602082840312156127fd57600080fd5b600061280b848285016125b1565b91505092915050565b60006020828403121561282657600080fd5b6000612834848285016125c6565b91505092915050565b60006020828403121561284f57600080fd5b600082013567ffffffffffffffff81111561286957600080fd5b61287584828501612605565b91505092915050565b6000806040838503121561289157600080fd5b600083013567ffffffffffffffff8111156128ab57600080fd5b6128b785828601612605565b925050602083013567ffffffffffffffff8111156128d457600080fd5b6128e085828601612605565b9150509250929050565b6000602082840312156128fc57600080fd5b600061290a8482850161262f565b91505092915050565b61291c81613331565b82525050565b61292b81613343565b82525050565b600061293c826131d9565b61294681856131ef565b93506129568185602086016133b4565b61295f81613580565b840191505092915050565b6000612975826131e4565b61297f8185613200565b935061298f8185602086016133b4565b61299881613580565b840191505092915050565b60006129ae826131e4565b6129b88185613211565b93506129c88185602086016133b4565b80840191505092915050565b600081546129e1816133e7565b6129eb8186613211565b94506001821660008114612a065760018114612a1757612a4a565b60ff19831686528186019350612a4a565b612a20856131c4565b60005b83811015612a4257815481890152600182019150602081019050612a23565b838801955050505b50505092915050565b6000612a60600983613211565b9150612a6b82613591565b600982019050919050565b6000612a83603283613200565b9150612a8e826135ba565b604082019050919050565b6000612aa6602583613200565b9150612ab182613609565b604082019050919050565b6000612ac9601c83613200565b9150612ad482613658565b602082019050919050565b6000612aec602483613200565b9150612af782613681565b604082019050919050565b6000612b0f601983613200565b9150612b1a826136d0565b602082019050919050565b6000612b32602c83613200565b9150612b3d826136f9565b604082019050919050565b6000612b55603883613200565b9150612b6082613748565b604082019050919050565b6000612b78600183613211565b9150612b8382613797565b600182019050919050565b6000612b9b602a83613200565b9150612ba6826137c0565b604082019050919050565b6000612bbe602983613200565b9150612bc98261380f565b604082019050919050565b6000612be1602e83613200565b9150612bec8261385e565b604082019050919050565b6000612c04600283613211565b9150612c0f826138ad565b600282019050919050565b6000612c27602083613200565b9150612c32826138d6565b602082019050919050565b6000612c4a603183613200565b9150612c55826138ff565b604082019050919050565b6000612c6d602c83613200565b9150612c788261394e565b604082019050919050565b6000612c90602f83613200565b9150612c9b8261399d565b604082019050919050565b6000612cb3602183613200565b9150612cbe826139ec565b604082019050919050565b6000612cd6601d83613211565b9150612ce182613a3b565b601d82019050919050565b6000612cf9605883613211565b9150612d0482613a64565b605882019050919050565b6000612d1c603183613200565b9150612d2782613ad9565b604082019050919050565b6000612d3f600d83613211565b9150612d4a82613b28565b600d82019050919050565b612d5e8161339b565b82525050565b6000612d7082846129a3565b915081905092915050565b6000612d8782856129a3565b9150612d9382846129a3565b91508190509392505050565b6000612dab82856129a3565b9150612db682612b6b565b9150612dc282846129d4565b91508190509392505050565b6000612dda82866129d4565b9150612de682856129a3565b9150612df282846129d4565b9150819050949350505050565b6000612e0a82612a53565b9150612e1682866129a3565b9150612e2182612cec565b9150612e2d82856129a3565b9150612e3882612d32565b9150612e4482846129a3565b9150612e4f82612bf7565b9150819050949350505050565b6000612e6782612cc9565b9150612e7382846129a3565b915081905092915050565b6000602082019050612e936000830184612913565b92915050565b6000608082019050612eae6000830187612913565b612ebb6020830186612913565b612ec86040830185612d55565b8181036060830152612eda8184612931565b905095945050505050565b6000602082019050612efa6000830184612922565b92915050565b60006020820190508181036000830152612f1a818461296a565b905092915050565b60006020820190508181036000830152612f3b81612a76565b9050919050565b60006020820190508181036000830152612f5b81612a99565b9050919050565b60006020820190508181036000830152612f7b81612abc565b9050919050565b60006020820190508181036000830152612f9b81612adf565b9050919050565b60006020820190508181036000830152612fbb81612b02565b9050919050565b60006020820190508181036000830152612fdb81612b25565b9050919050565b60006020820190508181036000830152612ffb81612b48565b9050919050565b6000602082019050818103600083015261301b81612b8e565b9050919050565b6000602082019050818103600083015261303b81612bb1565b9050919050565b6000602082019050818103600083015261305b81612bd4565b9050919050565b6000602082019050818103600083015261307b81612c1a565b9050919050565b6000602082019050818103600083015261309b81612c3d565b9050919050565b600060208201905081810360008301526130bb81612c60565b9050919050565b600060208201905081810360008301526130db81612c83565b9050919050565b600060208201905081810360008301526130fb81612ca6565b9050919050565b6000602082019050818103600083015261311b81612d0f565b9050919050565b60006020820190506131376000830184612d55565b92915050565b6000613147613158565b90506131538282613419565b919050565b6000604051905090565b600067ffffffffffffffff82111561317d5761317c613551565b5b61318682613580565b9050602081019050919050565b600067ffffffffffffffff8211156131ae576131ad613551565b5b6131b782613580565b9050602081019050919050565b60008190508160005260206000209050919050565b600081519050919050565b600081519050919050565b600082825260208201905092915050565b600082825260208201905092915050565b600081905092915050565b60006132278261339b565b91506132328361339b565b9250827fffffffffffffffffffffffffffffffffffffffffffffffffffffffffffffffff03821115613267576132666134c4565b5b828201905092915050565b600061327d8261339b565b91506132888361339b565b925082613298576132976134f3565b5b828204905092915050565b60006132ae8261339b565b91506132b98361339b565b9250817fffffffffffffffffffffffffffffffffffffffffffffffffffffffffffffffff04831182151516156132f2576132f16134c4565b5b828202905092915050565b60006133088261339b565b91506133138361339b565b925082821015613326576133256134c4565b5b828203905092915050565b600061333c8261337b565b9050919050565b60008115159050919050565b60007fffffffff0000000000000000000000000000000000000000000000000000000082169050919050565b600073ffffffffffffffffffffffffffffffffffffffff82169050919050565b6000819050919050565b82818337600083830152505050565b60005b838110156133d25780820151818401526020810190506133b7565b838111156133e1576000848401525b50505050565b600060028204905060018216806133ff57607f821691505b6020821081141561341357613412613522565b5b50919050565b61342282613580565b810181811067ffffffffffffffff8211171561344157613440613551565b5b80604052505050565b60006134558261339b565b91507fffffffffffffffffffffffffffffffffffffffffffffffffffffffffffffffff821415613488576134876134c4565b5b600182019050919050565b600061349e8261339b565b91506134a98361339b565b9250826134b9576134b86134f3565b5b828206905092915050565b7f4e487b7100000000000000000000000000000000000000000000000000000000600052601160045260246000fd5b7f4e487b7100000000000000000000000000000000000000000000000000000000600052601260045260246000fd5b7f4e487b7100000000000000000000000000000000000000000000000000000000600052602260045260246000fd5b7f4e487b7100000000000000000000000000000000000000000000000000000000600052604160045260246000fd5b6000601f19601f8301169050919050565b7f7b226e616d65223a220000000000000000000000000000000000000000000000600082015250565b7f4552433732313a207472616e7366657220746f206e6f6e20455243373231526560008201527f63656976657220696d706c656d656e7465720000000000000000000000000000602082015250565b7f4552433732313a207472616e736665722066726f6d20696e636f72726563742060008201527f6f776e6572000000000000000000000000000000000000000000000000000000602082015250565b7f4552433732313a20746f6b656e20616c7265616479206d696e74656400000000600082015250565b7f4552433732313a207472616e7366657220746f20746865207a65726f2061646460008201527f7265737300000000000000000000000000000000000000000000000000000000602082015250565b7f4552433732313a20617070726f766520746f2063616c6c657200000000000000600082015250565b7f4552433732313a206f70657261746f7220717565727920666f72206e6f6e657860008201527f697374656e7420746f6b656e0000000000000000000000000000000000000000602082015250565b7f4552433732313a20617070726f76652063616c6c6572206973206e6f74206f7760008201527f6e6572206e6f7220617070726f76656420666f7220616c6c0000000000000000602082015250565b7f2e00000000000000000000000000000000000000000000000000000000000000600082015250565b7f4552433732313a2062616c616e636520717565727920666f7220746865207a6560008201527f726f206164647265737300000000000000000000000000000000000000000000602082015250565b7f4552433732313a206f776e657220717565727920666f72206e6f6e657869737460008201527f656e7420746f6b656e0000000000000000000000000000000000000000000000602082015250565b7f45524337323155524953746f726167653a2055524920736574206f66206e6f6e60008201527f6578697374656e7420746f6b656e000000000000000000000000000000000000602082015250565b7f227d000000000000000000000000000000000000000000000000000000000000600082015250565b7f4552433732313a206d696e7420746f20746865207a65726f2061646472657373600082015250565b7f45524337323155524953746f726167653a2055524920717565727920666f722060008201527f6e6f6e6578697374656e7420746f6b656e000000000000000000000000000000602082015250565b7f4552433732313a20617070726f76656420717565727920666f72206e6f6e657860008201527f697374656e7420746f6b656e0000000000000000000000000000000000000000602082015250565b7f4552433732314d657461646174613a2055524920717565727920666f72206e6f60008201527f6e6578697374656e7420746f6b656e0000000000000000000000000000000000602082015250565b7f4552433732313a20617070726f76616c20746f2063757272656e74206f776e6560008201527f7200000000000000000000000000000000000000000000000000000000000000602082015250565b7f646174613a6170706c69636174696f6e2f6a736f6e3b6261736536342c000000600082015250565b7f222c20226465736372697074696f6e223a224120446f6d61696e204f6e20546860008201527f6520446576204e616d652053657276696365222c2022696d616765223a22646160208201527f74613a696d6167652f7376672b786d6c3b6261736536342c0000000000000000604082015250565b7f4552433732313a207472616e736665722063616c6c6572206973206e6f74206f60008201527f776e6572206e6f7220617070726f766564000000000000000000000000000000602082015250565b7f222c20226c656e677468223a2200000000000000000000000000000000000000600082015250565b613b5a81613331565b8114613b6557600080fd5b50565b613b7181613343565b8114613b7c57600080fd5b50565b613b888161334f565b8114613b9357600080fd5b50565b613b9f8161339b565b8114613baa57600080fd5b5056fe4142434445464748494a4b4c4d4e4f505152535455565758595a6162636465666768696a6b6c6d6e6f707172737475767778797a303132333435363738392b2fa2646970667358221220c50fd4ef1056e3a8bb0eaf7741656e63df158e49d2e7758899e10e411b7e7e6164736f6c634300080400333c73766720786d6c6e733d22687474703a2f2f7777772e77332e6f72672f323030302f737667222077696474683d2232373022206865696768743d22323730222066696c6c3d226e6f6e65223e3c706174682066696c6c3d2275726c282342292220643d224d302030683237307632373048307a222f3e3c646566733e3c66696c7465722069643d22412220636f6c6f722d696e746572706f6c6174696f6e2d66696c746572733d2273524742222066696c746572556e6974733d227573657253706163654f6e55736522206865696768743d22323730222077696474683d22323730223e3c666544726f70536861646f772064783d2230222064793d22312220737464446576696174696f6e3d22322220666c6f6f642d6f7061636974793d222e323235222077696474683d223230302522206865696768743d2232303025222f3e3c2f66696c7465723e3c2f646566733e3c7061746820643d224d37322e3836332034322e393439632d2e3636382d2e3338372d312e3432362d2e35392d322e3139372d2e3539732d312e3532392e3230342d322e3139372e35396c2d31302e30383120362e3033322d362e383520332e3933342d31302e30383120362e303332632d2e3636382e3338372d312e3432362e35392d322e3139372e3539732d312e3532392d2e3230342d322e3139372d2e35396c2d382e3031332d342e37323161342e353220342e35322030203020312d312e3538392d312e363136632d2e3338342d2e3636352d2e3539342d312e3431382d2e3630382d322e313837762d392e3331632d2e3031332d2e3737352e3138352d312e3533382e3537322d322e32303861342e323520342e323520302030203120312e3632352d312e3539356c372e3838342d342e3539632e3636382d2e33383720312e3432362d2e353920322e3139372d2e353973312e3532392e32303420322e3139372e35396c372e38383420342e353961342e353220342e353220302030203120312e35383920312e363136632e3338342e3636352e35393420312e3431382e36303820322e31383776362e3033326c362e38352d342e303635762d362e303332632e3031332d2e3737352d2e3138352d312e3533382d2e3537322d322e32303861342e323520342e32352030203020302d312e3632352d312e3539354c34312e3435362032342e3539632d2e3636382d2e3338372d312e3432362d2e35392d322e3139372d2e3539732d312e3532392e3230342d322e3139372e35396c2d31342e38363420382e36353561342e323520342e32352030203020302d312e36323520312e353935632d2e3338372e36372d2e35383520312e3433342d2e35373220322e3230387631372e343431632d2e3031332e3737352e31383520312e3533382e35373220322e32303861342e323520342e323520302030203020312e36323520312e3539356c31342e38363420382e363535632e3636382e33383720312e3432362e353920322e3139372e353973312e3532392d2e32303420322e3139372d2e35396c31302e3038312d352e39303120362e38352d342e3036352031302e3038312d352e393031632e3636382d2e33383720312e3432362d2e353920322e3139372d2e353973312e3532392e32303420322e3139372e35396c372e38383420342e353961342e353220342e353220302030203120312e35383920312e363136632e3338342e3636352e35393420312e3431382e36303820322e31383776392e333131632e3031332e3737352d2e31383520312e3533382d2e35373220322e32303861342e323520342e32352030203020312d312e36323520312e3539356c2d372e38383420342e373231632d2e3636382e3338372d312e3432362e35392d322e3139372e3539732d312e3532392d2e3230342d322e3139372d2e35396c2d372e3838342d342e353961342e353220342e35322030203020312d312e3538392d312e363136632d2e3338352d2e3636352d2e3539342d312e3431382d2e3630382d322e313837762d362e3033326c2d362e383520342e30363576362e303332632d2e3031332e3737352e31383520312e3533382e35373220322e32303861342e323520342e323520302030203020312e36323520312e3539356c31342e38363420382e363535632e3636382e33383720312e3432362e353920322e3139372e353973312e3532392d2e32303420322e3139372d2e35396c31342e3836342d382e363535632e3635372d2e33393420312e3230342d2e393520312e3538392d312e363136732e3539342d312e3431382e3630392d322e3138375635352e353338632e3031332d2e3737352d2e3138352d312e3533382d2e3537322d322e32303861342e323520342e32352030203020302d312e3632352d312e3539356c2d31342e3939332d382e3738367a222066696c6c3d2223666666222f3e3c646566733e3c6c696e6561724772616469656e742069643d2242222078313d2230222079313d2230222078323d22323730222079323d2232373022206772616469656e74556e6974733d227573657253706163654f6e557365223e3c73746f702073746f702d636f6c6f723d2223636235656565222f3e3c73746f70206f66667365743d2231222073746f702d636f6c6f723d2223306364376534222073746f702d6f7061636974793d222e3939222f3e3c2f6c696e6561724772616469656e743e3c2f646566733e3c7465787420783d2233322e352220793d223233312220666f6e742d73697a653d223237222066696c6c3d2223666666222066696c7465723d2275726c282341292220666f6e742d66616d696c793d22506c7573204a616b617274612053616e732c44656a6156752053616e732c4e6f746f20436f6c6f7220456d6f6a692c4170706c6520436f6c6f7220456d6f6a692c73616e732d73657269662220666f6e742d7765696768743d22626f6c64223e",
  "linkReferences": {},
  "deployedLinkReferences": {}
}