{
  "_format": "hh-sol-artifact-1",
  "contractName": "NFTMinter",
  "sourceName": "contracts/Greeter.sol",
  "abi": [
    {
      "inputs": [],
      "stateMutability": "nonpayable",
      "type": "constructor"
    },
    {
      "anonymous": false,
      "inputs": [
        {
          "indexed": true,
          "internalType": "address",
          "name": "owner",
          "type": "address"
        },
        {
          "indexed": true,
          "internalType": "address",
          "name": "approved",
          "type": "address"
        },
        {
          "indexed": true,
          "internalType": "uint256",
          "name": "tokenId",
          "type": "uint256"
        }
      ],
      "name": "Approval",
      "type": "event"
    },
    {
      "anonymous": false,
      "inputs": [
        {
          "indexed": true,
          "internalType": "address",
          "name": "owner",
          "type": "address"
        },
        {
          "indexed": true,
          "internalType": "address",
          "name": "operator",
          "type": "address"
        },
        {
          "indexed": false,
          "internalType": "bool",
          "name": "approved",
          "type": "bool"
        }
      ],
      "name": "ApprovalForAll",
      "type": "event"
    },
    {
      "anonymous": false,
      "inputs": [
        {
          "indexed": true,
          "internalType": "address",
          "name": "from",
          "type": "address"
        },
        {
          "indexed": true,
          "internalType": "address",
          "name": "to",
          "type": "address"
        },
        {
          "indexed": true,
          "internalType": "uint256",
          "name": "tokenId",
          "type": "uint256"
        }
      ],
      "name": "Transfer",
      "type": "event"
    },
    {
      "inputs": [
        {
          "internalType": "address",
          "name": "to",
          "type": "address"
        },
        {
          "internalType": "uint256",
          "name": "tokenId",
          "type": "uint256"
        }
      ],
      "name": "approve",
      "outputs": [],
      "stateMutability": "nonpayable",
      "type": "function"
    },
    {
      "inputs": [
        {
          "internalType": "address",
          "name": "owner",
          "type": "address"
        }
      ],
      "name": "balanceOf",
      "outputs": [
        {
          "internalType": "uint256",
          "name": "",
          "type": "uint256"
        }
      ],
      "stateMutability": "view",
      "type": "function"
    },
    {
      "inputs": [
        {
          "internalType": "uint256",
          "name": "tokenId",
          "type": "uint256"
        }
      ],
      "name": "getApproved",
      "outputs": [
        {
          "internalType": "address",
          "name": "",
          "type": "address"
        }
      ],
      "stateMutability": "view",
      "type": "function"
    },
    {
      "inputs": [
        {
          "internalType": "address",
          "name": "owner",
          "type": "address"
        },
        {
          "internalType": "address",
          "name": "operator",
          "type": "address"
        }
      ],
      "name": "isApprovedForAll",
      "outputs": [
        {
          "internalType": "bool",
          "name": "",
          "type": "bool"
        }
      ],
      "stateMutability": "view",
      "type": "function"
    },
    {
      "inputs": [],
      "name": "makeAnNFT",
      "outputs": [],
      "stateMutability": "nonpayable",
      "type": "function"
    },
    {
      "inputs": [],
      "name": "name",
      "outputs": [
        {
          "internalType": "string",
          "name": "",
          "type": "string"
        }
      ],
      "stateMutability": "view",
      "type": "function"
    },
    {
      "inputs": [
        {
          "internalType": "uint256",
          "name": "tokenId",
          "type": "uint256"
        }
      ],
      "name": "ownerOf",
      "outputs": [
        {
          "internalType": "address",
          "name": "",
          "type": "address"
        }
      ],
      "stateMutability": "view",
      "type": "function"
    },
    {
      "inputs": [
        {
          "internalType": "address",
          "name": "from",
          "type": "address"
        },
        {
          "internalType": "address",
          "name": "to",
          "type": "address"
        },
        {
          "internalType": "uint256",
          "name": "tokenId",
          "type": "uint256"
        }
      ],
      "name": "safeTransferFrom",
      "outputs": [],
      "stateMutability": "nonpayable",
      "type": "function"
    },
    {
      "inputs": [
        {
          "internalType": "address",
          "name": "from",
          "type": "address"
        },
        {
          "internalType": "address",
          "name": "to",
          "type": "address"
        },
        {
          "internalType": "uint256",
          "name": "tokenId",
          "type": "uint256"
        },
        {
          "internalType": "bytes",
          "name": "_data",
          "type": "bytes"
        }
      ],
      "name": "safeTransferFrom",
      "outputs": [],
      "stateMutability": "nonpayable",
      "type": "function"
    },
    {
      "inputs": [
        {
          "internalType": "address",
          "name": "operator",
          "type": "address"
        },
        {
          "internalType": "bool",
          "name": "approved",
          "type": "bool"
        }
      ],
      "name": "setApprovalForAll",
      "outputs": [],
      "stateMutability": "nonpayable",
      "type": "function"
    },
    {
      "inputs": [
        {
          "internalType": "bytes4",
          "name": "interfaceId",
          "type": "bytes4"
        }
      ],
      "name": "supportsInterface",
      "outputs": [
        {
          "internalType": "bool",
          "name": "",
          "type": "bool"
        }
      ],
      "stateMutability": "view",
      "type": "function"
    },
    {
      "inputs": [],
      "name": "symbol",
      "outputs": [
        {
          "internalType": "string",
          "name": "",
          "type": "string"
        }
      ],
      "stateMutability": "view",
      "type": "function"
    },
    {
      "inputs": [
        {
          "internalType": "uint256",
          "name": "tokenId",
          "type": "uint256"
        }
      ],
      "name": "tokenURI",
      "outputs": [
        {
          "internalType": "string",
          "name": "",
          "type": "string"
        }
      ],
      "stateMutability": "view",
      "type": "function"
    },
    {
      "inputs": [
        {
          "internalType": "address",
          "name": "from",
          "type": "address"
        },
        {
          "internalType": "address",
          "name": "to",
          "type": "address"
        },
        {
          "internalType": "uint256",
          "name": "tokenId",
          "type": "uint256"
        }
      ],
      "name": "transferFrom",
      "outputs": [],
      "stateMutability": "nonpayable",
      "type": "function"
    }
  ],
  "bytecode": "0x608060405260405180610160016040528061012f81526020016200359a61012f9139600890805190602001906200003892919062000204565b503480156200004657600080fd5b506040518060400160405280600881526020017f5765623343616d700000000000000000000000000000000000000000000000008152506040518060400160405280600381526020017f57334300000000000000000000000000000000000000000000000000000000008152508160009080519060200190620000cb92919062000204565b508060019080519060200190620000e492919062000204565b505050620001326040518060400160405280600f81526020017f4d79204e465420436f6e747261637400000000000000000000000000000000008152506200013860201b62000b961760201c565b620003e1565b620001d8816040516024016200014f9190620002f5565b6040516020818303038152906040527f41304fac000000000000000000000000000000000000000000000000000000007bffffffffffffffffffffffffffffffffffffffffffffffffffffffff19166020820180517bffffffffffffffffffffffffffffffffffffffffffffffffffffffff8381831617835250505050620001db60201b60201c565b50565b60008151905060006a636f6e736f6c652e6c6f679050602083016000808483855afa5050505050565b82805462000212906200036b565b90600052602060002090601f01602090048101928262000236576000855562000282565b82601f106200025157805160ff191683800117855562000282565b8280016001018555821562000282579182015b828111156200028157825182559160200191906001019062000264565b5b50905062000291919062000295565b5090565b5b80821115620002b057600081600090555060010162000296565b5090565b6000620002c18262000319565b620002cd818562000324565b9350620002df81856020860162000335565b620002ea81620003d0565b840191505092915050565b60006020820190508181036000830152620003118184620002b4565b905092915050565b600081519050919050565b600082825260208201905092915050565b60005b838110156200035557808201518184015260208101905062000338565b8381111562000365576000848401525b50505050565b600060028204905060018216806200038457607f821691505b602082108114156200039b576200039a620003a1565b5b50919050565b7f4e487b7100000000000000000000000000000000000000000000000000000000600052602260045260246000fd5b6000601f19601f8301169050919050565b6131a980620003f16000396000f3fe608060405234801561001057600080fd5b50600436106100ea5760003560e01c806370a082311161008c578063b88d4fde11610066578063b88d4fde1461025b578063c87b56dd14610277578063e4d098e1146102a7578063e985e9c5146102b1576100ea565b806370a08231146101f157806395d89b4114610221578063a22cb4651461023f576100ea565b8063095ea7b3116100c8578063095ea7b31461016d57806323b872dd1461018957806342842e0e146101a55780636352211e146101c1576100ea565b806301ffc9a7146100ef57806306fdde031461011f578063081812fc1461013d575b600080fd5b61010960048036038101906101049190611f8f565b6102e1565b6040516101169190612457565b60405180910390f35b6101276103c3565b6040516101349190612472565b60405180910390f35b61015760048036038101906101529190611fe1565b610455565b60405161016491906123f0565b60405180910390f35b61018760048036038101906101829190611f53565b6104da565b005b6101a3600480360381019061019e9190611e4d565b6105f2565b005b6101bf60048036038101906101ba9190611e4d565b610652565b005b6101db60048036038101906101d69190611fe1565b610672565b6040516101e891906123f0565b60405180910390f35b61020b60048036038101906102069190611de8565b610724565b60405161021891906126d2565b60405180910390f35b6102296107dc565b6040516102369190612472565b60405180910390f35b61025960048036038101906102549190611f17565b61086e565b005b61027560048036038101906102709190611e9c565b610884565b005b610291600480360381019061028c9190611fe1565b6108e6565b60405161029e9190612472565b60405180910390f35b6102af610a38565b005b6102cb60048036038101906102c69190611e11565b610b02565b6040516102d89190612457565b60405180910390f35b60007f80ac58cd000000000000000000000000000000000000000000000000000000007bffffffffffffffffffffffffffffffffffffffffffffffffffffffff1916827bffffffffffffffffffffffffffffffffffffffffffffffffffffffff191614806103ac57507f5b5e139f000000000000000000000000000000000000000000000000000000007bffffffffffffffffffffffffffffffffffffffffffffffffffffffff1916827bffffffffffffffffffffffffffffffffffffffffffffffffffffffff1916145b806103bc57506103bb82610c2f565b5b9050919050565b6060600080546103d290612951565b80601f01602080910402602001604051908101604052809291908181526020018280546103fe90612951565b801561044b5780601f106104205761010080835404028352916020019161044b565b820191906000526020600020905b81548152906001019060200180831161042e57829003601f168201915b5050505050905090565b600061046082610c99565b61049f576040517f08c379a000000000000000000000000000000000000000000000000000000000815260040161049690612652565b60405180910390fd5b6004600083815260200190815260200160002060009054906101000a900473ffffffffffffffffffffffffffffffffffffffff169050919050565b60006104e582610672565b90508073ffffffffffffffffffffffffffffffffffffffff168373ffffffffffffffffffffffffffffffffffffffff161415610556576040517f08c379a000000000000000000000000000000000000000000000000000000000815260040161054d90612692565b60405180910390fd5b8073ffffffffffffffffffffffffffffffffffffffff16610575610d05565b73ffffffffffffffffffffffffffffffffffffffff1614806105a457506105a38161059e610d05565b610b02565b5b6105e3576040517f08c379a00000000000000000000000000000000000000000000000000000000081526004016105da90612592565b60405180910390fd5b6105ed8383610d0d565b505050565b6106036105fd610d05565b82610dc6565b610642576040517f08c379a0000000000000000000000000000000000000000000000000000000008152600401610639906126b2565b60405180910390fd5b61064d838383610ea4565b505050565b61066d83838360405180602001604052806000815250610884565b505050565b6000806002600084815260200190815260200160002060009054906101000a900473ffffffffffffffffffffffffffffffffffffffff169050600073ffffffffffffffffffffffffffffffffffffffff168173ffffffffffffffffffffffffffffffffffffffff16141561071b576040517f08c379a0000000000000000000000000000000000000000000000000000000008152600401610712906125d2565b60405180910390fd5b80915050919050565b60008073ffffffffffffffffffffffffffffffffffffffff168273ffffffffffffffffffffffffffffffffffffffff161415610795576040517f08c379a000000000000000000000000000000000000000000000000000000000815260040161078c906125b2565b60405180910390fd5b600360008373ffffffffffffffffffffffffffffffffffffffff1673ffffffffffffffffffffffffffffffffffffffff168152602001908152602001600020549050919050565b6060600180546107eb90612951565b80601f016020809104026020016040519081016040528092919081815260200182805461081790612951565b80156108645780601f1061083957610100808354040283529160200191610864565b820191906000526020600020905b81548152906001019060200180831161084757829003601f168201915b5050505050905090565b610880610879610d05565b838361110b565b5050565b61089561088f610d05565b83610dc6565b6108d4576040517f08c379a00000000000000000000000000000000000000000000000000000000081526004016108cb906126b2565b60405180910390fd5b6108e084848484611278565b50505050565b60606108f182610c99565b610930576040517f08c379a000000000000000000000000000000000000000000000000000000000815260040161092790612632565b60405180910390fd5b600060066000848152602001908152602001600020805461095090612951565b80601f016020809104026020016040519081016040528092919081815260200182805461097c90612951565b80156109c95780601f1061099e576101008083540402835291602001916109c9565b820191906000526020600020905b8154815290600101906020018083116109ac57829003601f168201915b5050505050905060006109da6112d4565b90506000815114156109f0578192505050610a33565b600082511115610a25578082604051602001610a0d929190612373565b60405160208183030381529060405292505050610a33565b610a2e846112eb565b925050505b919050565b6000610a446007611392565b9050610a5033826113a0565b6000610a78604051602001610a64906123b9565b6040516020818303038152906040526113be565b9050600081604051602001610a8d91906123ce565b6040516020818303038152906040529050610aa8838261157c565b610acb60405180606001604052806025815260200161310f6025913984336115f0565b610ad5600761168f565b610afd81604051602001610ae99190612397565b604051602081830303815290604052610b96565b505050565b6000600560008473ffffffffffffffffffffffffffffffffffffffff1673ffffffffffffffffffffffffffffffffffffffff16815260200190815260200160002060008373ffffffffffffffffffffffffffffffffffffffff1673ffffffffffffffffffffffffffffffffffffffff16815260200190815260200160002060009054906101000a900460ff16905092915050565b610c2c81604051602401610baa9190612472565b6040516020818303038152906040527f41304fac000000000000000000000000000000000000000000000000000000007bffffffffffffffffffffffffffffffffffffffffffffffffffffffff19166020820180517bffffffffffffffffffffffffffffffffffffffffffffffffffffffff83818316178352505050506116a5565b50565b60007f01ffc9a7000000000000000000000000000000000000000000000000000000007bffffffffffffffffffffffffffffffffffffffffffffffffffffffff1916827bffffffffffffffffffffffffffffffffffffffffffffffffffffffff1916149050919050565b60008073ffffffffffffffffffffffffffffffffffffffff166002600084815260200190815260200160002060009054906101000a900473ffffffffffffffffffffffffffffffffffffffff1673ffffffffffffffffffffffffffffffffffffffff1614159050919050565b600033905090565b816004600083815260200190815260200160002060006101000a81548173ffffffffffffffffffffffffffffffffffffffff021916908373ffffffffffffffffffffffffffffffffffffffff160217905550808273ffffffffffffffffffffffffffffffffffffffff16610d8083610672565b73ffffffffffffffffffffffffffffffffffffffff167f8c5be1e5ebec7d5bd14f71427d1e84f3dd0314c0f7b2291e5b200ac8c7c3b92560405160405180910390a45050565b6000610dd182610c99565b610e10576040517f08c379a0000000000000000000000000000000000000000000000000000000008152600401610e0790612572565b60405180910390fd5b6000610e1b83610672565b90508073ffffffffffffffffffffffffffffffffffffffff168473ffffffffffffffffffffffffffffffffffffffff161480610e8a57508373ffffffffffffffffffffffffffffffffffffffff16610e7284610455565b73ffffffffffffffffffffffffffffffffffffffff16145b80610e9b5750610e9a8185610b02565b5b91505092915050565b8273ffffffffffffffffffffffffffffffffffffffff16610ec482610672565b73ffffffffffffffffffffffffffffffffffffffff1614610f1a576040517f08c379a0000000000000000000000000000000000000000000000000000000008152600401610f11906124f2565b60405180910390fd5b600073ffffffffffffffffffffffffffffffffffffffff168273ffffffffffffffffffffffffffffffffffffffff161415610f8a576040517f08c379a0000000000000000000000000000000000000000000000000000000008152600401610f8190612532565b60405180910390fd5b610f958383836116ce565b610fa0600082610d0d565b6001600360008573ffffffffffffffffffffffffffffffffffffffff1673ffffffffffffffffffffffffffffffffffffffff1681526020019081526020016000206000828254610ff09190612867565b925050819055506001600360008473ffffffffffffffffffffffffffffffffffffffff1673ffffffffffffffffffffffffffffffffffffffff16815260200190815260200160002060008282546110479190612786565b92505081905550816002600083815260200190815260200160002060006101000a81548173ffffffffffffffffffffffffffffffffffffffff021916908373ffffffffffffffffffffffffffffffffffffffff160217905550808273ffffffffffffffffffffffffffffffffffffffff168473ffffffffffffffffffffffffffffffffffffffff167fddf252ad1be2c89b69c2b068fc378daa952ba7f163c4a11628f55a4df523b3ef60405160405180910390a46111068383836116d3565b505050565b8173ffffffffffffffffffffffffffffffffffffffff168373ffffffffffffffffffffffffffffffffffffffff16141561117a576040517f08c379a000000000000000000000000000000000000000000000000000000000815260040161117190612552565b60405180910390fd5b80600560008573ffffffffffffffffffffffffffffffffffffffff1673ffffffffffffffffffffffffffffffffffffffff16815260200190815260200160002060008473ffffffffffffffffffffffffffffffffffffffff1673ffffffffffffffffffffffffffffffffffffffff16815260200190815260200160002060006101000a81548160ff0219169083151502179055508173ffffffffffffffffffffffffffffffffffffffff168373ffffffffffffffffffffffffffffffffffffffff167f17307eab39ab6107e8899845ad3d59bd9653f200f220920489ca2b5937696c318360405161126b9190612457565b60405180910390a3505050565b611283848484610ea4565b61128f848484846116d8565b6112ce576040517f08c379a00000000000000000000000000000000000000000000000000000000081526004016112c5906124d2565b60405180910390fd5b50505050565b606060405180602001604052806000815250905090565b60606112f682610c99565b611335576040517f08c379a000000000000000000000000000000000000000000000000000000000815260040161132c90612672565b60405180910390fd5b600061133f6112d4565b9050600081511161135f576040518060200160405280600081525061138a565b806113698461186f565b60405160200161137a929190612373565b6040516020818303038152906040525b915050919050565b600081600001549050919050565b6113ba828260405180602001604052806000815250611a1c565b5050565b606060008251905060008114156113e75760405180602001604052806000815250915050611577565b600060036002836113f89190612786565b61140291906127dc565b600461140e919061280d565b9050600060208261141f9190612786565b67ffffffffffffffff81111561145e577f4e487b7100000000000000000000000000000000000000000000000000000000600052604160045260246000fd5b6040519080825280601f01601f1916602001820160405280156114905781602001600182028036833780820191505090505b5090506000604051806060016040528060408152602001613134604091399050600181016020830160005b868110156115345760038101905062ffffff818a015116603f8160121c168401518060081b905060ff603f83600c1c1686015116810190508060081b905060ff603f8360061c1686015116810190508060081b905060ff603f831686015116810190508060e01b905080845260048401935050506114bb565b50600386066001811461154e576002811461155e57611569565b613d3d60f01b6002830352611569565b603d60f81b60018303525b508484525050819450505050505b919050565b61158582610c99565b6115c4576040517f08c379a00000000000000000000000000000000000000000000000000000000081526004016115bb906125f2565b60405180910390fd5b806006600084815260200190815260200160002090805190602001906115eb929190611c74565b505050565b61168a83838360405160240161160893929190612494565b6040516020818303038152906040527fe3849f79000000000000000000000000000000000000000000000000000000007bffffffffffffffffffffffffffffffffffffffffffffffffffffffff19166020820180517bffffffffffffffffffffffffffffffffffffffffffffffffffffffff83818316178352505050506116a5565b505050565b6001816000016000828254019250508190555050565b60008151905060006a636f6e736f6c652e6c6f679050602083016000808483855afa5050505050565b505050565b505050565b60006116f98473ffffffffffffffffffffffffffffffffffffffff16611a77565b15611862578373ffffffffffffffffffffffffffffffffffffffff1663150b7a02611722610d05565b8786866040518563ffffffff1660e01b8152600401611744949392919061240b565b602060405180830381600087803b15801561175e57600080fd5b505af192505050801561178f57506040513d601f19601f8201168201806040525081019061178c9190611fb8565b60015b611812573d80600081146117bf576040519150601f19603f3d011682016040523d82523d6000602084013e6117c4565b606091505b5060008151141561180a576040517f08c379a0000000000000000000000000000000000000000000000000000000008152600401611801906124d2565b60405180910390fd5b805181602001fd5b63150b7a0260e01b7bffffffffffffffffffffffffffffffffffffffffffffffffffffffff1916817bffffffffffffffffffffffffffffffffffffffffffffffffffffffff191614915050611867565b600190505b949350505050565b606060008214156118b7576040518060400160405280600181526020017f30000000000000000000000000000000000000000000000000000000000000008152509050611a17565b600082905060005b600082146118e95780806118d2906129b4565b915050600a826118e291906127dc565b91506118bf565b60008167ffffffffffffffff81111561192b577f4e487b7100000000000000000000000000000000000000000000000000000000600052604160045260246000fd5b6040519080825280601f01601f19166020018201604052801561195d5781602001600182028036833780820191505090505b5090505b60008514611a10576001826119769190612867565b9150600a8561198591906129fd565b60306119919190612786565b60f81b8183815181106119cd577f4e487b7100000000000000000000000000000000000000000000000000000000600052603260045260246000fd5b60200101907effffffffffffffffffffffffffffffffffffffffffffffffffffffffffffff1916908160001a905350600a85611a0991906127dc565b9450611961565b8093505050505b919050565b611a268383611a9a565b611a3360008484846116d8565b611a72576040517f08c379a0000000000000000000000000000000000000000000000000000000008152600401611a69906124d2565b60405180910390fd5b505050565b6000808273ffffffffffffffffffffffffffffffffffffffff163b119050919050565b600073ffffffffffffffffffffffffffffffffffffffff168273ffffffffffffffffffffffffffffffffffffffff161415611b0a576040517f08c379a0000000000000000000000000000000000000000000000000000000008152600401611b0190612612565b60405180910390fd5b611b1381610c99565b15611b53576040517f08c379a0000000000000000000000000000000000000000000000000000000008152600401611b4a90612512565b60405180910390fd5b611b5f600083836116ce565b6001600360008473ffffffffffffffffffffffffffffffffffffffff1673ffffffffffffffffffffffffffffffffffffffff1681526020019081526020016000206000828254611baf9190612786565b92505081905550816002600083815260200190815260200160002060006101000a81548173ffffffffffffffffffffffffffffffffffffffff021916908373ffffffffffffffffffffffffffffffffffffffff160217905550808273ffffffffffffffffffffffffffffffffffffffff16600073ffffffffffffffffffffffffffffffffffffffff167fddf252ad1be2c89b69c2b068fc378daa952ba7f163c4a11628f55a4df523b3ef60405160405180910390a4611c70600083836116d3565b5050565b828054611c8090612951565b90600052602060002090601f016020900481019282611ca25760008555611ce9565b82601f10611cbb57805160ff1916838001178555611ce9565b82800160010185558215611ce9579182015b82811115611ce8578251825591602001919060010190611ccd565b5b509050611cf69190611cfa565b5090565b5b80821115611d13576000816000905550600101611cfb565b5090565b6000611d2a611d2584612712565b6126ed565b905082815260208101848484011115611d4257600080fd5b611d4d84828561290f565b509392505050565b600081359050611d64816130b2565b92915050565b600081359050611d79816130c9565b92915050565b600081359050611d8e816130e0565b92915050565b600081519050611da3816130e0565b92915050565b600082601f830112611dba57600080fd5b8135611dca848260208601611d17565b91505092915050565b600081359050611de2816130f7565b92915050565b600060208284031215611dfa57600080fd5b6000611e0884828501611d55565b91505092915050565b60008060408385031215611e2457600080fd5b6000611e3285828601611d55565b9250506020611e4385828601611d55565b9150509250929050565b600080600060608486031215611e6257600080fd5b6000611e7086828701611d55565b9350506020611e8186828701611d55565b9250506040611e9286828701611dd3565b9150509250925092565b60008060008060808587031215611eb257600080fd5b6000611ec087828801611d55565b9450506020611ed187828801611d55565b9350506040611ee287828801611dd3565b925050606085013567ffffffffffffffff811115611eff57600080fd5b611f0b87828801611da9565b91505092959194509250565b60008060408385031215611f2a57600080fd5b6000611f3885828601611d55565b9250506020611f4985828601611d6a565b9150509250929050565b60008060408385031215611f6657600080fd5b6000611f7485828601611d55565b9250506020611f8585828601611dd3565b9150509250929050565b600060208284031215611fa157600080fd5b6000611faf84828501611d7f565b91505092915050565b600060208284031215611fca57600080fd5b6000611fd884828501611d94565b91505092915050565b600060208284031215611ff357600080fd5b600061200184828501611dd3565b91505092915050565b6120138161289b565b82525050565b612022816128ad565b82525050565b600061203382612743565b61203d8185612759565b935061204d81856020860161291e565b61205681612aea565b840191505092915050565b600061206c8261274e565b612076818561276a565b935061208681856020860161291e565b61208f81612aea565b840191505092915050565b60006120a58261274e565b6120af818561277b565b93506120bf81856020860161291e565b80840191505092915050565b60006120d860258361277b565b91506120e382612afb565b602582019050919050565b60006120fb60328361276a565b915061210682612b4a565b604082019050919050565b600061211e60258361276a565b915061212982612b99565b604082019050919050565b6000612141601c8361276a565b915061214c82612be8565b602082019050919050565b600061216460248361276a565b915061216f82612c11565b604082019050919050565b600061218760198361276a565b915061219282612c60565b602082019050919050565b60006121aa602c8361276a565b91506121b582612c89565b604082019050919050565b60006121cd60388361276a565b91506121d882612cd8565b604082019050919050565b60006121f0602a8361276a565b91506121fb82612d27565b604082019050919050565b600061221360298361276a565b915061221e82612d76565b604082019050919050565b6000612236602e8361276a565b915061224182612dc5565b604082019050919050565b600061225960208361276a565b915061226482612e14565b602082019050919050565b600061227c60318361276a565b915061228782612e3d565b604082019050919050565b600061229f609f8361277b565b91506122aa82612e8c565b609f82019050919050565b60006122c2602c8361276a565b91506122cd82612f4d565b604082019050919050565b60006122e5602f8361276a565b91506122f082612f9c565b604082019050919050565b600061230860218361276a565b915061231382612feb565b604082019050919050565b600061232b601d8361277b565b91506123368261303a565b601d82019050919050565b600061234e60318361276a565b915061235982613063565b604082019050919050565b61236d81612905565b82525050565b600061237f828561209a565b915061238b828461209a565b91508190509392505050565b60006123a2826120cb565b91506123ae828461209a565b915081905092915050565b60006123c482612292565b9150819050919050565b60006123d98261231e565b91506123e5828461209a565b915081905092915050565b6000602082019050612405600083018461200a565b92915050565b6000608082019050612420600083018761200a565b61242d602083018661200a565b61243a6040830185612364565b818103606083015261244c8184612028565b905095945050505050565b600060208201905061246c6000830184612019565b92915050565b6000602082019050818103600083015261248c8184612061565b905092915050565b600060608201905081810360008301526124ae8186612061565b90506124bd6020830185612364565b6124ca604083018461200a565b949350505050565b600060208201905081810360008301526124eb816120ee565b9050919050565b6000602082019050818103600083015261250b81612111565b9050919050565b6000602082019050818103600083015261252b81612134565b9050919050565b6000602082019050818103600083015261254b81612157565b9050919050565b6000602082019050818103600083015261256b8161217a565b9050919050565b6000602082019050818103600083015261258b8161219d565b9050919050565b600060208201905081810360008301526125ab816121c0565b9050919050565b600060208201905081810360008301526125cb816121e3565b9050919050565b600060208201905081810360008301526125eb81612206565b9050919050565b6000602082019050818103600083015261260b81612229565b9050919050565b6000602082019050818103600083015261262b8161224c565b9050919050565b6000602082019050818103600083015261264b8161226f565b9050919050565b6000602082019050818103600083015261266b816122b5565b9050919050565b6000602082019050818103600083015261268b816122d8565b9050919050565b600060208201905081810360008301526126ab816122fb565b9050919050565b600060208201905081810360008301526126cb81612341565b9050919050565b60006020820190506126e76000830184612364565b92915050565b60006126f7612708565b90506127038282612983565b919050565b6000604051905090565b600067ffffffffffffffff82111561272d5761272c612abb565b5b61273682612aea565b9050602081019050919050565b600081519050919050565b600081519050919050565b600082825260208201905092915050565b600082825260208201905092915050565b600081905092915050565b600061279182612905565b915061279c83612905565b9250827fffffffffffffffffffffffffffffffffffffffffffffffffffffffffffffffff038211156127d1576127d0612a2e565b5b828201905092915050565b60006127e782612905565b91506127f283612905565b92508261280257612801612a5d565b5b828204905092915050565b600061281882612905565b915061282383612905565b9250817fffffffffffffffffffffffffffffffffffffffffffffffffffffffffffffffff048311821515161561285c5761285b612a2e565b5b828202905092915050565b600061287282612905565b915061287d83612905565b9250828210156128905761288f612a2e565b5b828203905092915050565b60006128a6826128e5565b9050919050565b60008115159050919050565b60007fffffffff0000000000000000000000000000000000000000000000000000000082169050919050565b600073ffffffffffffffffffffffffffffffffffffffff82169050919050565b6000819050919050565b82818337600083830152505050565b60005b8381101561293c578082015181840152602081019050612921565b8381111561294b576000848401525b50505050565b6000600282049050600182168061296957607f821691505b6020821081141561297d5761297c612a8c565b5b50919050565b61298c82612aea565b810181811067ffffffffffffffff821117156129ab576129aa612abb565b5b80604052505050565b60006129bf82612905565b91507fffffffffffffffffffffffffffffffffffffffffffffffffffffffffffffffff8214156129f2576129f1612a2e565b5b600182019050919050565b6000612a0882612905565b9150612a1383612905565b925082612a2357612a22612a5d565b5b828206905092915050565b7f4e487b7100000000000000000000000000000000000000000000000000000000600052601160045260246000fd5b7f4e487b7100000000000000000000000000000000000000000000000000000000600052601260045260246000fd5b7f4e487b7100000000000000000000000000000000000000000000000000000000600052602260045260246000fd5b7f4e487b7100000000000000000000000000000000000000000000000000000000600052604160045260246000fd5b6000601f19601f8301169050919050565b7f68747470733a2f2f6e6674707265766965772e30786465762e636f6465732f3f60008201527f636f64653d000000000000000000000000000000000000000000000000000000602082015250565b7f4552433732313a207472616e7366657220746f206e6f6e20455243373231526560008201527f63656976657220696d706c656d656e7465720000000000000000000000000000602082015250565b7f4552433732313a207472616e736665722066726f6d20696e636f72726563742060008201527f6f776e6572000000000000000000000000000000000000000000000000000000602082015250565b7f4552433732313a20746f6b656e20616c7265616479206d696e74656400000000600082015250565b7f4552433732313a207472616e7366657220746f20746865207a65726f2061646460008201527f7265737300000000000000000000000000000000000000000000000000000000602082015250565b7f4552433732313a20617070726f766520746f2063616c6c657200000000000000600082015250565b7f4552433732313a206f70657261746f7220717565727920666f72206e6f6e657860008201527f697374656e7420746f6b656e0000000000000000000000000000000000000000602082015250565b7f4552433732313a20617070726f76652063616c6c6572206973206e6f74206f7760008201527f6e6572206e6f7220617070726f76656420666f7220616c6c0000000000000000602082015250565b7f4552433732313a2062616c616e636520717565727920666f7220746865207a6560008201527f726f206164647265737300000000000000000000000000000000000000000000602082015250565b7f4552433732313a206f776e657220717565727920666f72206e6f6e657869737460008201527f656e7420746f6b656e0000000000000000000000000000000000000000000000602082015250565b7f45524337323155524953746f726167653a2055524920736574206f66206e6f6e60008201527f6578697374656e7420746f6b656e000000000000000000000000000000000000602082015250565b7f4552433732313a206d696e7420746f20746865207a65726f2061646472657373600082015250565b7f45524337323155524953746f726167653a2055524920717565727920666f722060008201527f6e6f6e6578697374656e7420746f6b656e000000000000000000000000000000602082015250565b7f7b226e616d65223a2022576562332043616d70204e6167707572222c2022646560008201527f736372697074696f6e223a2022466972737420576562332043616d7020496e2060208201527f4e6167707572222c2022696d616765223a202268747470733a2f2f697066732e60408201527f696e667572612e696f2f697066732f516d537a426a56567663524b626f44774e60608201527f43336a4355697531454b4331647765397242426f456745785435546572227d00608082015250565b7f4552433732313a20617070726f76656420717565727920666f72206e6f6e657860008201527f697374656e7420746f6b656e0000000000000000000000000000000000000000602082015250565b7f4552433732314d657461646174613a2055524920717565727920666f72206e6f60008201527f6e6578697374656e7420746f6b656e0000000000000000000000000000000000602082015250565b7f4552433732313a20617070726f76616c20746f2063757272656e74206f776e6560008201527f7200000000000000000000000000000000000000000000000000000000000000602082015250565b7f646174613a6170706c69636174696f6e2f6a736f6e3b6261736536342c000000600082015250565b7f4552433732313a207472616e736665722063616c6c6572206973206e6f74206f60008201527f776e6572206e6f7220617070726f766564000000000000000000000000000000602082015250565b6130bb8161289b565b81146130c657600080fd5b50565b6130d2816128ad565b81146130dd57600080fd5b50565b6130e9816128b9565b81146130f457600080fd5b50565b61310081612905565b811461310b57600080fd5b5056fe416e204e465420772f20494420257320686173206265656e206d696e74656420746f2025734142434445464748494a4b4c4d4e4f505152535455565758595a6162636465666768696a6b6c6d6e6f707172737475767778797a303132333435363738392b2fa264697066735822122038356be920b791770c9cdb7dc280442840c5f8e3b3287e5accd6c86412e6bd8164736f6c634300080400333c73766720786d6c6e733d27687474703a2f2f7777772e77332e6f72672f323030302f73766727207072657365727665417370656374526174696f3d27784d696e594d696e206d656574272076696577426f783d273020302033353020333530273e3c7374796c653e2e62617365207b2066696c6c3a2077686974653b20666f6e742d66616d696c793a2073657269663b20666f6e742d73697a653a20323470783b207d3c2f7374796c653e3c726563742077696474683d273130302527206865696768743d2731303025272066696c6c3d27626c61636b27202f3e3c7465787420783d273530252720793d273530252720636c6173733d27626173652720646f6d696e616e742d626173656c696e653d276d6964646c652720746578742d616e63686f723d276d6964646c65273e",
  "linkReferences": {},
  "deployedLinkReferences": {}
}